:020000040800F2
:100000006018002005B7000845B7000875AC000867
:1000100049B700084DB7000851B7000800000000BC
:1000200000000000000000000000000055B70008BC
:1000300059B70008000000005DB70008D5AC000803
:1000400061B7000865B7000869B700086DB7000818
:1000500071B7000875B7000879B700087DB70008C8
:1000600081B7000885B7000889B700088DB7000878
:1000700091B7000895B7000899B700089DB7000828
:10008000A1B70008A5B7000855AB0008A9B700083C
:10009000ADB70008B1B70008B5B70008DDB4000877
:1000A0007DAB00086FAB0008E3B40008B9B70008E7
:1000B000ADAB0008BDB70008C1B70008C5B7000860
:1000C000C9B70008CDB70008D1B70008D5B70008F8
:1000D000D9B7000817AC0008DDB70008E1B7000881
:1000E000F9AC0008E5B70008E9B70008EDB700086B
:1000F000F1B70008F5B70008F9B70008FDB7000828
:1001000001B8000805B8000809B800080DB80008D3
:1001100011B8000815B8000819B80008F9B40008AB
:100120001DB8000821B8000825B8000829B8000843
:100130002DB8000831B8000835B8000839B80008F3
:100140003DB8000841B8000845B8000849B80008A3
:100150004DB8000851B8000855B8000859B8000853
:100160005DB8000861B8000865B8000869B8000803
:100170006DB8000871B8000875B8000879B80008B3
:100180007DB8000881B8000885B8000889B8000863
:100190008DB8000800000000FFB4000805B5000895
:1001A00091B8000895B8000899B800089DB80008F3
:1001B000A1B80008A5B80008A9B80008ADB80008A3
:1001C000B1B80008B5B80008B9B80008BDB8000853
:1001D000C1B80008C5B800082DE9F04F81B0DFF8BC
:1001E000A0A8DFF8A048DFF8A078DFF8A068DFF863
:1001F000A0582DED068BA0B001F08CF800F07CFF2C
:1002000014210022684601F0D3F8DAF84C0440F0DB
:100210002000CAF84C040122DAF84C0400F0200057
:1002200005900599DAF84C0440F00400CAF84C0433
:10023000DAF84C0400F0040005900599DAF84C0453
:1002400040F00100CAF84C04DAF84C0400F0010058
:1002500005900599DAF84C0440F01000CAF84C04F7
:10026000DAF84C0400F0100005900599DAF84C0417
:1002700040F00200CAF84C04DAF84C0400F0020026
:1002800005900599DAF84C0440F00800CAF84C04CF
:10029000DAF84C0400F0080005900599DAF84C04EF
:1002A00040F04000CAF84C041021DAF84C0400F089
:1002B000400005900598204601F099F90022D021D0
:1002C000384601F094F901224FF48051304601F094
:1002D0008EF900224FF44041304601F088F90022A7
:1002E0000321284601F083F9102200920121019197
:1002F0000022029203926946204601F09FF8D02224
:10030000009201210191002202920392694638462F
:1003100001F094F80021019102914FF400640094DF
:100320006946304601F08AF84FF4504200920121AC
:1003300001910022029203926946304601F07EF854
:1003400001220092019200220292039269462846FD
:1003500001F074F80121019102220321039100921E
:1003600002926946284601F069F80021DFF87C2DE9
:1003700002914FF48065019200956946384601F07C
:100380005DF8202200920022DFF8641DDFF8647D12
:10039000019102926946304601F050F80022002196
:1003A000172001F04FF9172001F075F917A8002167
:1003B00001604160816000223C2108A800F0F8FF44
:1003C00020210022684600F0F3FF0020B860386169
:1003D00001210420B86179610320002138624FF0C7
:1003E000A0464FF400284FF40049B98387F8241041
:1003F000F962396387F83810F96387F840103E6076
:10040000C7F80480C7F80C90384601F090F9002036
:10041000179017A9384601F006FF01210A91092219
:1004200004210C910992012110917F2280211291C7
:1004300013910B920021DFF8780D089000228DF8BF
:1004400050100D928DF844208DF845208DF84620EF
:1004500008A9384601F0AFFC062101917F21DFF8A1
:10046000542D0391009200210422059102920492DE
:100470006946384601F08CFADFF83C0D0090002107
:1004800002910C2201926946384601F081FA12214C
:10049000DFF8282D019100926946384601F078FA7C
:1004A0003C210022684600F083FF06F58070F86664
:1004B000002179670020F867C7F88000042187F8D9
:1004C0008800C7F8841001200021C7F88C0087F845
:1004D000891087F8901087F8A410C7F8A81087F83B
:1004E000AC10C7F87080C7F8789007F16C0001F085
:1004F0001EF9012102910922042104910192012196
:1005000008917F2280210A910B9103920021DFF84C
:10051000B00C009000228DF830100592ADF8242028
:100520008DF82620694607F16C0001F044FCC7F8FD
:1005300004A407F2044001F029FF3021002268469C
:1005400000F036FF06F50060C7F82C0407F22C40D7
:1005500001F03CFF02220092002102200522ADF8AA
:1005600004100291039004910590069207910022D5
:10057000694607F22C4001F03DFF0022052103925D
:1005800006911022694607F22C4001F033FFDFF894
:10059000440DDFF8448DC7F8D8000021012087F80A
:1005A000E900C7F8E0101120C7F8EC00C7F8E41024
:1005B00087F8E81087F8EA10002001210222C7F826
:1005C0000C01C7F81001C7F81401C7F8F010C7F8FC
:1005D000F420C7F8F820C7F8FC10C7F80011C7F8D6
:1005E0000411C7F8081107F1D80001F0DBFF08F586
:1005F00080614FF48270C7F83C11C7F840010021B8
:100600004FF4E060C7F84411C7F848010120C7F86B
:1006100050014FF40072C7F84C11C7F85421002064
:100620002821C7F85C01C7F86001C7F864010722F8
:10063000C7F86C01C7F87001C7F85811C7F86821EE
:1006400007F59E7002F054FB142100221AA800F056
:10065000AFFE0AA90020086048608860002207A851
:100660000260426082601C21684600F0A1FE3421D5
:1006700000220DA800F09CFE0020C7F850022021A7
:1006800042F23410C7F85802C7F854120020012172
:10069000C7F864024FF48076C7F86012C7F84C823E
:1006A000C7F85C6207F5137002F070FD07F5137070
:1006B00002F09AFD102106221B911A921AA907F541
:1006C000137002F089FF70200A9000220B920C92A6
:1006D0000AA907F5137003F00BFA012007900890A0
:1006E000099007AA022107F5137003F093FA60201E
:1006F0000021009001910022039105910292049241
:100700000692694607F5137002F0BCFE00200190C6
:100710000422694607F5137002F0B4FE0020019030
:100720000822694607F5137002F0ACFE7020002223
:1007300000900192039269460C2207F5137002F0B3
:10074000A1FEBF2100221091119212921492002159
:100750004FF080704FF000720D940E950F9613912C
:100760001590169217911891199107F513700DA90C
:1007700003F0F4F907F5137003F0A0FC2421002224
:1007800003A800F015FE00210020009101910291C4
:10079000C7F89012C7F89402C7F89C0240F2FF71A4
:1007A00003204FF08042C7F898120390C7F88C22BC
:1007B00000210020C7F8A41204910122069005929E
:1007C0000C2101200791002209900B9108920A92B6
:1007D00003A907F5237002F023FD0020009002908A
:1007E000694607F5237003F083F908F54060C7F800
:1007F000A0014FF4E131C7F8A4110020C7F8A80107
:10080000C7F8AC01C7F8B0010C21C7F8B801C7F8A8
:10081000BC01C7F8C001C7F8C401C7F8C801C7F8D0
:10082000B41107F5D07003F0DBFC002107F5D070A0
:1008300004F0C4FB002107F5D07004F011FC07F5AB
:10084000D07004F099FB04F065FC0020009001904A
:100850000290C7F8D4028020DFF8882AC7F8E402A3
:1008600040F2A361C7F8CC22C7F8D01242F20F744D
:10087000C7F8D84207F5337002F088FC00200090DA
:100880000290694607F5337003F032F9DFF8585AE1
:10089000C7F8584305F58060C7F84C030021802055
:1008A000C7F8640340F2A466C7F85413C7F85C1392
:1008B000C7F86013C7F8506307F5537002F066FC81
:1008C0000020C7F81403C7F81C03C7F820038021D1
:1008D000C7F82413C7F80C53C7F81063C7F81843B8
:1008E00007F5437002F052FC01220421182000F0A9
:1008F000A9FE182000F0CFFE00220021192000F0F0
:10090000A1FE192000F0C7FE00220221122000F0F3
:1009100099FE122000F0BFFE002203211C2000F0EF
:1009200091FE1C2000F0B7FE01220321252000F0DB
:1009300089FE252000F0AFFE00220321282000F0D0
:1009400081FE282000F0A7FED7F88C02C16841F490
:100950000011C160C16841F48001C160C16841F407
:100960000001C16007F5337002F02AFC07F55370EF
:1009700002F026FC04F0F0FB04F011FC4FF47A7056
:1009800004F068FF012302224FF0A04107F2544017
:1009900004F076FF87F89603012303224FF0A0416D
:1009A00007F58C6004F06CFF87F8970305210020A1
:1009B00087F84902012287F8BC1387F8C02387F81B
:1009C000C123052005F008F810F1010F62D0A7F847
:1009D000BE03B7F8BE0305F05CF887F8C30305F063
:1009E00034F8010004BF602187F8491287F8C20378
:1009F0004FF49671002005F07DF805F083F864202F
:100A000004F028FF05F084F805F088F84FF47A70B8
:100A100004F020FF07F56C7005F086F807F5757097
:100A200005F0B2F8002087F8D10387F8E30303202C
:100A3000DFF8B848DFF8B8582070042187F82C1286
:100A40000022062187F8322287F8332287F8DD1347
:100A500087F8E42341F2741B9FED068ADFED068AD6
:100A600040F6CC4A9FED059A40F29919DFF8846868
:100A700051E200BF00005C42000034420000B44379
:100A8000000C02400014004800080048000C004818
:100A9000001800485F2087F84902A9E73078042849
:100AA00042DC728848F212314A431144490E00EE8A
:100AB000101AB8EE400AF0EE080A01EE100A60EED5
:100AC000200AB8EE411AB4EE601AF1EE10FA36DAE6
:100AD00097F8E203012839D097F8E903002857D1A5
:100AE00097F8A003B0F1000F40F0CE8097F8A20372
:100AF000002800F0F78007F5667005F055F9B7F8A3
:100B00009803A7F83002B7F99A03010048BF494299
:100B1000B7F92E229142C0F2D68097F83332022BD9
:100B200040F0DA80D2E000BFB7F836120429B8DC12
:100B30006322012187F8492287F8E213B1E7612295
:100B40005FF0010087F8492287F8E20304F0E0FF34
:100B500005F0C3F904F0E2FF0020288097F849026D
:100B600004F0FCFB0420002187F82C0287F8E21334
:100B7000B2E7024652421BE26220012187F8490295
:100B8000A7F8F22387F8E213A7F8F023A0E700BF45
:100B900004F09CFF4FF0FF31884280460CD10220C8
:100BA00087F832025A22002087F84922A7F8FE83EC
:100BB00087F8E90394E700BFD7F88C02DFF838170D
:100BC000406ADFF83837A0FB0332120A09FB120033
:100BD00001EE100A404680FB01EC84444FEAEC2110
:100BE00001EBD1710AFB110000EE900AB8EE411A38
:100BF000DFED031AF8EEE00A9FED020A04E000BF01
:100C0000CDCCCC4300C04C45C1EE211A80EE800A09
:100C100061EE899A60EE09AA39EEEAAA1AEE100A84
:100C200005F07EF921F000410122DFF8D43605F00D
:100C30009BF914D897F8EA03401CC2B2022A0FDDD0
:100C400007F2504107F24C43C1ED00AA592202219C
:100C500083ED00AA87F8492287F8321200E00020CD
:100C600087F8EA0307F2404307F2444207F248419B
:100C70000020C3ED009AC2ED00AA81ED00AAA7F8FA
:100C8000FE8387F8E9032BE707F5667005F077F830
:100C9000B7F89C0387F82D02012187F8321287F8F4
:100CA000331200200221C7F83C0287F82C1207F506
:100CB0006C7004F042FF07F56C7004F045FF0020F3
:100CC00087F8A00312E7022287F833221D29DCBF30
:100CD000012187F8A11300BFA7F82E025FF00000E2
:100CE00087F8A20397F8A103A0B107F5667005F095
:100CF00095F80021A7F82E1287F83212002004215F
:100D0000A7F8300287F8330287F82C1287F8A1037E
:100D100004E000BF97F82C0230B300BF97F8CA0375
:100D200001282DD197ED8F0AB4EE480AF1EE10FAA2
:100D300026DB04F0EDFE04F0F1FE0021022087F82E
:100D4000331287F8320204F0E1FA97F83A02401CB5
:100D500087F83A02012004F0ECFA97F8CA03401C25
:100D600087F8CA030CE000BF97F8CA030028D5D162
:100D700097ED8F0AB4EE680AF1EE10FA80F2128055
:100D800097F8D803012827D097F8ED03002839D128
:100D900097F83202012841D097F83202022800F079
:100DA00087809BE004F0B4FE04F0B8FE002102202E
:100DB00087F8331287F8320204F0A8FA97F83A025B
:100DC000401C87F83A02012004F0B3FA97F8CA03EE
:100DD000401C87F8CA03A1E707F50B7107F575708A
:100DE00004F0E0FE010009D00021A7F8D613552237
:100DF0005FF0020187F8492287F8321287F8EC0386
:100E0000C2E700BF07F5757004F0C4FE07F5757002
:100E100004F0C5FE002087F8ED03B9E7B7F83612F5
:100E2000B7F82E02401A02B2002A25D402B2FB2AD9
:100E300080F22680A7F8F00307F56C7004F089FEB5
:100E4000B7F92E02002848BF404281B207F56C7006
:100E500004F08FFE97F8B80300289DD097F8B503EB
:100E6000012899D197F8491297F8B203022287F81E
:100E7000322288B1582119E010464042D6E700BF1F
:100E8000B7F830221A2AD5DB02235C2287F83232E7
:100E900087F84922CEE700BF97F8B40310B1572175
:100EA00004E000BF97F8B30300B1562187F8491258
:100EB00004F02EFE04F032FE002087F8DC0397F8E1
:100EC000490204F04BFA042087F82C02002101208B
:100ED00087F8331287F8D81387F8E40397F8E0030C
:100EE00000286DD197F8E10310B100F0DFFB00BFDF
:100EF00097F8E503B0F1000F40F0788097F8E6032B
:100F000048B100BF04F004FE04F008FE002187F899
:100F1000E51387F8E613012107F5637004F036FD49
:100F2000022107F5637004F031FD07F5637004F0EA
:100F3000ADFC07F50B7005F055F805F093F897F840
:100F4000EB0338B15FF0000287F8322287F84922BC
:100F500087F8EB2397F8AC03B0F1010F00F0828023
:100F600097F8AD03B0F1010F00F08E8097F8AE0353
:100F7000B0F1010F00F0968007F50B7004F064FFEC
:100F800007F50B7004F0B1FF97F8E31320780129FF
:100F900000F0908000283FF481AD01287FF498ADE7
:100FA0002A88B7F83402121A10B200283FF5E1ADD2
:100FB00010B26528BFF6E0ADA7F8F02388E500BFC2
:100FC00004F0A6FD04F0AAFD002187F833120220E8
:100FD00087F83202042187F82C1200202880012093
:100FE00004F0A7F9002087F8E0037BE7B7F8F403E3
:100FF000F0B197F8E71301297FF480AFD7F88C227E
:10100000516AA7F8F813B7F9F823B7F9F613521A8B
:10101000A7F8FC2391B212B2002A54D4A7F8FA130D
:10102000B7F8FA13652951DB012087F8E60369E771
:101030004FF47A7105F0BEF804F064FDB7F8F403DC
:101040005930A7F8F403002187F8E71387F8E8136D
:101050004FF47A7004F0FEFBD7F88C12486AA7F8B8
:10106000F6034BE707F50B7107F5697004F000FE16
:1010700007F56C7004F061FD0321002087F82C1245
:1010800087F8AC036CE700BF07F50B7107F56970D3
:1010900004F05CFE0421002087F82C1287F8AD03D1
:1010A00064E700BF07F5697004F05DFE002087F873
:1010B000AE0361E700287FF46DAF012222700021AA
:1010C000317372716CE752421146A7E75845BFF67B
:1010D00015AF5930A7F8F4034FF47A7100B205F058
:1010E00069F8002087F8E70308E7000000002110F6
:1010F00000001110FC0C002000B5A9B0382100221E
:1011000005A800F055F914210022684600F050F9B6
:101110005421002213A800F04BF9002005F052F8EA
:101120004FF480710891022202210C910D910592D9
:1011300004210E914022082109921091119155220B
:1011400002210F92129105A805F0A2F80F200021AC
:1011500000900322029103910491019208216846B4
:1011600005F0BAFA49F201020021139214914FF0EE
:1011700080724FF080512192249113A805F0F2FB68
:1011800029B000BD10B50446C80710D55D4A02F16C
:1011900028034021204601F0D1FB08B904F0F6F8FD
:1011A0002046BDE810400022012101F06ABC10BDBC
:1011B0008000501D02003004040060080800900CFC
:1011C0000001802101685048814200D070474F4A99
:1011D00010B492F8DC0381B0B8B192F8DE03401C81
:1011E00082F8DE0392F8DD1392F8DE0381420CD21E
:1011F00092F8DE1382F8EF135E2082F84902022192
:10120000002082F8321282F8DC03B2F8000492F86F
:10121000A313401CA2F8000411B1012382F8A233E9
:1012200092F8D81321B1B2F8D6136431A2F8D613CC
:10123000012382F8E93380B2B2F8361200EE901A38
:101240004CF6CD43F8EE600A9FED241A434380EE3E
:10125000811ADB0C9FED220AD2ED8F0A03EB830487
:1012600041EE000AB0EB4400C2ED8F0A20D192F8A3
:10127000CD03012804D1B2F8CE03401CA2F8CE035E
:101280001C484378012B02D10178491C0170417937
:10129000012902D1017B491C017392F8E50338B1A1
:1012A00092F8E8030121401C82F8E71382F8E80372
:1012B00092F8EE0318B901B010BC03F0DFBF01B023
:1012C00010BC7047202803D111490888401C0880B1
:1012D0007047000000680040002C01400000E1441D
:1012E0009CC4203F0014004000440140081400202A
:1012F0004C140020F8130020A1000AA089163CA07D
:1013000000001440B013002000480140FC0C0020F5
:1013100058140020032010B500F08AF9042005F0CD
:1013200083FC0024002814BF012402F0EDFC2046B9
:1013300010BDF0B40246106895681318506803EBAE
:101340005004C00748BF4D44A3422DD013F8016B91
:1013500016F0030004BF13F8010BC01C31090F295C
:1013600007D113F8011B0F3103E013F8017B05F8D7
:10137000017B401EF9D10029E6D013F8010BC6F31A
:101380008107032F08BF13F8017B00EB07204042C1
:1013900028440026B71E8F421EBF10F8017B05F8B7
:1013A000017B761CF6D1CFE7F0BC02F10C00704750
:1013B00062F30F2262F31F42401810F0030308D0BB
:1013C000C91A1FD3DB0748BF00F8012D28BF20F83A
:1013D000022D130030B414461546103928BF20E9F9
:1013E0003C00FAD8490728BF20E90C0048BF40F864
:1013F000042D890028BF20F8022D48BF00F8012DD8
:1014000030BC7047C91818BF00F8012DCB0728BFA2
:1014100000F8012D704790F81C1169B9012180F87E
:101420001C110022D0F8201180F81D21086840F01E
:101430002000086002207047012070472DE9F04F1E
:101440000A4681B01168DFF8C4E1DFF8C481DFF833
:10145000C491DFF8C4A1002300294FF00F0B00F066
:10146000BB800146012000FA03FC10681CEA000062
:1014700000F0AD805468022C18BF122C5CD05F00C5
:1014800003240D681679BC40E44306F003062540AA
:10149000BE4035430D605568012D18BF022D03D0A5
:1014A000112D18BF122D11D18D68D6682540BE4070
:1014B00035438D604D6825EA0C065568C5F3001567
:1014C00015FA03F545EA060CC1F804C0D1F80CC0C2
:1014D000956804EA0C0405FA07F72743CF605468BF
:1014E000E40074D5DAF8005045F00105CAF8005060
:1014F0004FEA930CDAF8004004F001040094009CD9
:1015000059F82C709C0004F00C040BFA04F5AF435E
:10151000B1F1904F20D0414520D0404DA9421FD07D
:101520003F4EB1421ED03F4DA9421DD03E4EB1426A
:1015300014BF0625052519E0DC0801EB84049D0095
:10154000276A05F01C050BFA05F6B743166906FA7B
:1015500005F53D43256292E7002507E0012505E0FA
:10156000022503E0032501E05FF0040505FA04F419
:101570003C4349F82C40C443DEF800C0566804EAF6
:101580000C0CF50348BF40EA0C0CCEF800C0DEF8A6
:1015900004C0556804EA0C0CAE0348BF40EA0C0CCA
:1015A000CEF804C0DEF808C0566804EA0C0CF50258
:1015B00048BF40EA0C0CCEF808C0DEF80CC05568F5
:1015C00004EA0C04AD0248BF0443CEF80C40106896
:1015D0005B1CD8407FF446AF01B0BDE8F08F00003F
:1015E00000690140481E8041C043C00F70470AB1E6
:1015F00081617047816270470C490A6803461A424C
:101600001CBF0B60FFF75EBE704700000004014086
:101610000004004808000140601002400008004833
:10162000000C004800100048001400481404014059
:101630002E490A6860F30A2240F2FA5060F31F4212
:101640000A60704770B4294D2C68C4F30224C4F1B9
:101650000703052B2FBF0F2501259D406D1E261D5D
:10166000072E34BF0024E41E2940A140012303FAC1
:1016700004F4641E224011430A01010003D41C4BF0
:101680005A5470BC70471B4801F00F01014401F827
:10169000042C70BC7047010007D4012200F01F0128
:1016A000154B8A40400943F820207047BFF34F8F05
:1016B0000E4A1248116801F4E06101431160BFF362
:1016C0004F8F00BFFDE7401EB0F1807F01D30120A6
:1016D00070470B494860F02081F8130D00228A60A2
:1016E000072008600020704705F0C2BA0CED00E04A
:1016F00000E400E018ED00E000E100E00400FA057D
:1017000010E000E000F11403C80D00F00400C01860
:10171000090D01F01F01D0F800C007238B402CEA0F
:10172000030C02FA01F141EA0C010160704730B587
:1017300081B0044600200025009014B9012001B0BA
:1017400030BDE06D30B9204602F0FFFA002121667D
:1017500084F8581021688868800004D58A68DFF80A
:10176000100202408A6021688868C00027D48A6815
:10177000DFF80002DFF80032024042F080528A6057
:1017800000211868DFF8F421E0FB0221490C0091E8
:101790000098A0B10098401E0090009878B1009881
:1017A000401E0090009850B10098401E0090009894
:1017B00028B10098401E009000980028EAD12168C6
:1017C0008868C00008D4E26D42F01002E26501258D
:1017D000206E40F0010020668868E26DD30600F1BB
:1017E000BE80400700F1BB80E26D22F4807242F0BF
:1017F0000202E2658868C0072ED4B1F1A04F1CBF79
:10180000DFF87C01814205D1DFF878010268D0F869
:10181000000108E0DFF86C01D0F80024D0F80035B2
:10182000D0F800061A43104310F0010014D1B1F1B2
:10183000A04F1CBFDFF84801814207BFDFF8441109
:1018400001F54072DFF83C0100F5E0621168606864
:1018500021F47C1101431160607FE36BA16894F86F
:10186000242043EA4033E06803431943012A41EA54
:10187000024103D1A06A401E41EA4041E06A20B122
:1018800000F478700843216B01432268DFF8F80008
:10189000D36803401943D16021680A69606B22F064
:1018A000406202430A6121688A688868520742D40C
:1018B000000740D4CA68DFF8D400237F024094F8C0
:1018C000380042EA833242EA4002CA6020690028B6
:1018D000206801690CD041F4803101612268D2F89E
:1018E000C0102069890B40EA8131C2F8C01009E0BC
:1018F00021F4803101612068D0F8C010890B890380
:10190000C0F8C01094F8400001280FD12268136974
:10191000606CA16C6FF38A030343E06C0B43216D91
:1019200003430B4343F00103136104E020680169A2
:10193000490849000161606901282068016B05D1EF
:10194000226A0909521E42EA011101E0090909014E
:1019500001630121E06D61F30100E06504E0E06DE9
:1019600040F01000E0650125284601B030BD0000C0
:10197000C0FFFF5FC0FFFF7FE805002047ACC5A7A1
:1019800000010050080000500740F0FFFDBFFFFFBE
:10199000F0B581B0054600200E460090002495F871
:1019A0005810012908BF022000F0D381012085F8DA
:1019B000580029688868400700F1C2817268306861
:1019C00001F13003910901F00C01C91802F01F0266
:1019D0000B681F279740C0F38460BB4300FA02F2F4
:1019E0001A430A60286882688168520700F1A5805E
:1019F000090700F1A280B268B2F1004F08D1316846
:101A00000022FFF77FFE2868416941F0004106E0AF
:101A10003168FFF777FE2868416921F00041416194
:101A20002B68D9683069042830D06033326803EB02
:101A30008003DFF82C031F68074002F0F8423A43A6
:101A4000C9087769480000F0060087403A4342F031
:101A500000421A6029683369B069603101EB830183
:101A60000A6822F0807210430860307F01280CBFA2
:101A70004FF00070002029683369603101EB830169
:101A80000A6822F000721043086056E003F160001B
:101A9000016801683368C1F384615A030EBFC3F360
:101AA000846293FAA3F2B2FA82F2914203D10168FE
:101AB00021F0004101602868603050F8041F01687F
:101AC0003268C1F3846153030EBFC2F3846292FA99
:101AD000A2F2B2FA82F2914203D1016821F00041F0
:101AE00001602868603050F8081F01683368C1F34E
:101AF00084615A030EBFC3F3846293FAA3F2B2FA6D
:101B000082F2914203D1016821F00041016028680E
:101B1000603050F80C1F01683368C1F384615A03C8
:101B20000EBFC3F3846293FAA3F2B2FA82F2914237
:101B300003D1016821F0004101602B689868C0075B
:101B40006BD4F1683268D3F8B070C2F312008743E7
:101B5000DFF8100201F01801C84002403A43C3F810
:101B6000B020F168DFF80002814256D13368580393
:101B70000EBFC3F3846093FAA3F0B0FA80F0401C68
:101B800000F01F000A2821D2580306D1C3F3846154
:101B9000C3F38460C3F3846305E093FAA3F0B0FA5F
:101BA00080F108460B46491C401C8906012200F0C2
:101BB0001F005B1C01F0F84102FA00F003F01F0364
:101BC000014303EB430341EA035122E0580306D1EA
:101BD000C3F38462C3F38460C3F3846305E093FAC0
:101BE000A3F0B0FA80F210461346521C401C5B1C56
:101BF0009206012100F01F0003F01F0302F0F842DB
:101C000081400A3B114303EB430341EA035141F096
:101C10000071B2682868FFF775FD3068DFF84C1175
:101C2000084200F092802968B1F1A04F1CBFDFF894
:101C30002C2191420EBFDFF82021DFF81C2102F594
:101C400080621268DFF8286102F0E072B0421CBFC7
:101C5000DFF8203198423FD116023DD4B1F1A04FB8
:101C600008D0DFF8140181426FD1DFF8EC1001F5E4
:101C7000806001E0DFF8E0000168DFF8006121F03A
:101C8000E0710A4342F40002026000213268DFF88A
:101C9000F000E2FB0001480C00EB40039B000093C6
:101CA0000098002851D00098401E0090009800280D
:101CB0004BD00098401E00900098002845D0009816
:101CC000401E0090009800283FD00098401E0090D1
:101CD00000980028E7D138E0DFF8A830984216D104
:101CE000D00132D4B1F1A04F1CBFDFF870008142A7
:101CF0000EBFDFF86410DFF8601001F5806108683E
:101D000020F0E070024342F080720A601DE0DFF8CC
:101D10007830984219D1560217D4DFF8400081423A
:101D200013D0DFF83400B1F1A04F18BF00F5806088
:101D3000016821F0E0710A4342F48002026004E08D
:101D4000E86D40F02000E8650124002085F8580087
:101D5000204601B0F0BD0000080300500001005013
:101D600000F0FF03FFFF070000007F400000088035
:101D7000000021C31000C09000060050E8050020BC
:101D800047ACC5A7000052C7000084CB00F1140384
:101D9000C80D00F00400C018090D01F01F01D0F8B3
:101DA00000C007238B402CEA030C02FA01F141EA40
:101DB0000C0101607047F0B581B00546002000902D
:101DC0000E4695F8580000240021012808BF022083
:101DD00000F027826869012285F8582000281CBF7E
:101DE000326A012A16D17068092836D13168B06A82
:101DF000490C01F4785120B100F07C000843F16AED
:101E000001432B68DFF84805DA6C02400A43DA64C4
:101E1000696622E0A86E50B9AA666866316AB06A3F
:101E2000491E20B100F07C000843F16A014330688C
:101E30003279C0F3846002F01F0290400143A86E23
:101E40006A6E401E1143A866696630B92A68DFF8D9
:101E50000005D36C03401943D164296888680007E2
:101E60000FD496F8250096F826200028C86820F49C
:101E7000401040EA425204BF96F8243042EA03522E
:101E8000CA6029688A688868520700F1D78003070A
:101E900000F1D480B06A00281CBFF06A002807D186
:101EA00096F825000128C8680DD140F000700CE0BC
:101EB00096F82500012805D1E86D40F02000E8657E
:101EC000012403E0C86820F00070C86096F8300074
:101ED0002A6801280AD11369706BB16B23F4FF7370
:101EE00003430B4343F00203136103E0106920F046
:101EF00002001061B268B2F1004F09D13168286860
:101F00000022FFF743FF2868416941F0004107E0E4
:101F100031682868FFF73AFF2868416921F00041DD
:101F200041612B68D9683069042830D06033326849
:101F300003EB8003DFF81C041F68074002F0F8423F
:101F40003A43C9087769480000F0060087403A43E1
:101F500042F000421A6029683269B069603101EBD1
:101F600082010B6823F0807318430860307F0128DA
:101F70000CBF4FF00070002029683369603101EB1D
:101F800083010A6822F000721043086056E003F1F2
:101F90006000016801683368C1F384615A030EBFB1
:101FA000C3F3846293FAA3F2B2FA82F2914203D1AC
:101FB000016821F0004101602868603050F8041F7A
:101FC00001683368C1F384615A030EBFC3F38462AE
:101FD00093FAA3F2B2FA82F2914203D1016821F09E
:101FE000004101602868603050F8081F01683368BC
:101FF000C1F384615A030EBFC3F3846293FAA3F260
:10200000B2FA82F2914203D1016821F000410160ED
:102010002868603050F80C1F01683368C1F3846190
:102020005A030EBFC3F3846293FAA3F2B2FA82F2A8
:10203000914203D1016821F0004101602B6898684A
:10204000C0076BD4F1683268D3F8B070C2F31200E5
:102050008743DFF8040301F01801C84002403A4307
:10206000C3F8B020F168DFF8F402814256D133683A
:1020700058030EBFC3F3846093FAA3F0B0FA80F064
:10208000401C00F01F00092821D8580306D1C3F3D3
:102090008461C3F38460C3F3846305E093FAA3F01F
:1020A000B0FA80F108460B46491C401C8906012203
:1020B00000F01F005B1C01F0F84102FA00F003F091
:1020C0001F03014303EB430341EA035122E058039A
:1020D00006D1C3F38462C3F38460C3F3846305E071
:1020E00093FAA3F0B0FA80F210461346521C401C3B
:1020F0005B1C9206012100F01F0003F01F0302F099
:10210000F84281400A3B114303EB430341EA035188
:1021100041F00071B2682868FFF738FE30689049D6
:1021200008427AD02968B1F1A04F1CBF874A91427A
:102130000EBF8C4A8B4A02F5806212688A4B02F00D
:10214000E07298421CBF894EB0423AD1130238D493
:10215000B1F1A04F06D0864881425ED1814901F598
:10216000806100E07F490868824E20F0E070024301
:1021700042F400020A60002132687F48E2FB00015D
:10218000480C00EB40039B0000930098002844D0CB
:102190000098401E0090009800283ED00098401EF5
:1021A00000900098002838D00098401E00900098B9
:1021B000002832D00098401E009000980028E7D1F7
:1021C0002BE06E4B984213D1D00126D4B1F1A04F31
:1021D0001CBF5E4881420EBF6249624901F58061C1
:1021E000086820F0E070024342F080720A6014E058
:1021F000634B984211D156020FD4544881420CD0FF
:102200005848B1F1A04F18BF00F58060016821F077
:10221000E0710A4342F480020260002085F8580011
:10222000204601B0F0BD70B490F858300022012B68
:1022300008BF022000F08480012380F85830036832
:10224000B3F1A04F14D14F4CF834A4689D686D07CA
:102250006DD464076BD4B3F1A04F1CBF3B4CA342B9
:1022600007BF484B03F54075464C04F5E06510E0A8
:10227000354DAB4203D1434C04F59F64E5E7C26D95
:1022800042F02002C265002180F85810012070BC85
:1022900070470B6853B32C684B6890F8386024F48F
:1022A00060441C4344EA46342C600468B4F1A04FF7
:1022B0001CBF264B9C4204D1324B1C68D3F8003122
:1022C00007E0304BD3F80044D3F80065D3F800366C
:1022D0003443234313F001032ED12E682A4B0C689C
:1022E00089681E4026430E432E6025E02B6823F4A8
:1022F00060432B600168B1F1A04F1CBF134B9942A2
:1023000004D120490B68D1F8001107E01D49D1F82C
:102310000034D1F80045D1F800162343194311F0D9
:10232000010109D12B6818490B402B6004E0C26DF4
:1023300042F02002C2650122002180F858101046A8
:1023400070BC704700000000000400500001005005
:102350000040100400F0FF03FFFF070000007F4073
:102360000000088008030050000021C31000C09046
:1023700000060050E805002047ACC5A7000052C782
:10238000000084CB08000050E0F0FFFF10B504000F
:1023900001D1012010BD94F8210028B9002184F852
:1023A0002010204601F041FD00206062A060206105
:1023B00000216160E1606161012084F8210000205A
:1023C00010BD00EB4100B0F93200704710B50400B9
:1023D00001D1012010BD207920B900216171204672
:1023E00001F036FD022020710021216101202071C1
:1023F000002010BD2DE9F04104460E466079012809
:1024000008BF022000F0C880012161710220207104
:1024100002F01005B068042827D1002A3CD104F04E
:1024200029FC07462068416B080405D504F022FC0E
:10243000C01B0128F6D937E0012003F00BFA206811
:10244000716A016440F2FF332068816CB26AAB406C
:102450009943AA4011438164FF232068C16CF26A4A
:10246000AB409943AA401143C164F069012808D1E7
:102470002068816B326A1F23AB409943AA40114305
:10248000816307202168CF6BB169A8408743C807E3
:1024900019D54FF0000822E02068416B00290BD5C8
:1024A00004F0E8FB0128F7D9216941F00801216116
:1024B00003202071BDE8F081012003F0CBF92168F1
:1024C000706A4864BEE7880748BF4FF0010806D429
:1024D0007069B0F1010868EB08084FEAD878B16874
:1024E0007069014348EA01084FF48072AA403179CB
:1024F0009743012908BF48F480784FF40071A94040
:1025000070798F43012808BF48F4007830680228AA
:1025100027F440470DD104F0F0F92049884228BF44
:1025200047F4004706D21E49884203D347F4804748
:1025300000E00743216808FA05F00743CF634FF432
:10254000804122681068A9408843106040F6FE72FE
:1025500020680168F368AA409143AB4019430160C9
:10256000C02221680868AA409043086040F60F72B4
:102570002068016E3369AA409143F2689B01C2F35F
:10258000830203F470631A4302FA05F50D430566EE
:102590000121217100206071BDE8F0810168890985
:1025A00001B4C40430B5040081B031D094F85C00AB
:1025B00028B9002184F85D10204601F077FC2168DD
:1025C000886920F01000886104F054FB05462068FB
:1025D00081690A0705D504F04DFB401B0B28F6D393
:1025E0000FE0816941F00101816104F043FB054680
:1025F00020688269D1070ED404F03CFB401B0B28F5
:10260000F6D3216E41F001012166032084F85C00BD
:10261000012001B030BD826942F00202826121686E
:102620005C48814202D161685B480160217C0129DC
:10263000216888690CBF20F0400040F040008861AC
:102640002168607C012888690CBF40F4804020F438
:10265000804088612168A07C012888690CBF20F433
:10266000805040F48050886122689169A06821F40C
:102670004071014391612168886920F0A40088615C
:102680002168086920F010000861E068012804D181
:102690002168886940F0040013E098B1216802289D
:1026A00088690CD040F0800088612168086940F09A
:1026B00010000861E068032804D12168886940F0AF
:1026C00020008861E069A1696269401E491E00021C
:1026D00040EA4160216A491E08432168521E40EACF
:1026E0000240C861A068B0F5407F0FD1A06AE16ADE
:1026F000401E491E40EA0120216B626A491E40EAE1
:1027000001102168521E40EA0240C8602168D1F8D9
:10271000C020E06B0243C1F8C02021681F4A204856
:10272000914208BF1F4803D01F4A914208BF1F486B
:102730002064D1F88030626B23F4F81343EA02433B
:10274000C1F8803000F1700161642368D3F8801013
:10275000A26B21F0706141EA026100F51872C3F8C2
:102760008010226500F5C471E16400F1B00300F54A
:102770001E71A364616500F55472002140F8041BCA
:102780009042FAD3A1652166012084F85C0001B073
:10279000002030BD0064004000650040006800403B
:1027A00000A4004050A70040006C0040A0AA0040D8
:1027B00070B490F85C20012A18BF022A1ED14B6821
:1027C0004E690C69CD688A680968920759B9006C2E
:1027D00042EAC56242EA044200EB830032430260EF
:1027E000002070BC7047406C00EBC300324344EAE9
:1027F000457404604260002070BC7047016E41F077
:1028000002010166012070BC704730B490F85C4052
:10281000012C11D10568029CD5F88000800944EA9A
:10282000801444EA011444EA820444EA4304C5F8EB
:102830008040002030BC7047016E41F00401016609
:10284000012030BC704790F85C20012A0BD1022196
:1028500080F85C1002689169490849009161002282
:10286000026600207047016E41F0040101660120FC
:1028700070470000F0B590F85C30022B57D1036828
:10288000D3F8C450AC0205D5016E41F40071016665
:102890000120F0BDD3F8C4400B698E681E43C4F319
:1028A00001454B680C68002B0EBF46EA8446264360
:1028B00046F080460B6ACF694C6947EA03678B692B
:1028C0001F43CB6827433B43476D05EBC50407EB2C
:1028D000C40707F108043E607B600027CB680FF255
:1028E00000464FEA134C16F80C30BBB192F802E0E8
:1028F000D3784FEA0E4E4EEA036E537812F804CBAB
:102900004EEA03234CEA030344F8043B3F1DCB6823
:102910004FEA134C16F80C309F42E7D301680122AE
:1029200002FA05F5C1F8CC5085650020F0BD016EB6
:1029300041F0080101660120F0BD0000F0B590F8FB
:102940005C40022C40F097804029056810D1D5F8F2
:10295000904014F00F0F05D1016E41F480710166B3
:102960000120F0BDD5F89040866CC4F301250FE03E
:10297000D5F8984014F00F0F05D1016E41F4807125
:1029800001660120F0BDD5F89840C66CC4F301255E
:1029900005EBC50406EBC406346814F080445460AB
:1029A00037680CBFC7F38A4727F0604717604FF0BE
:1029B000000C376807F00057976056F8044B04F096
:1029C000004414613768BFB2D761346804F47024DE
:1029D000D460376807F480175761346804F4001432
:1029E00094613768C7F3066414620FF2F42756F84F
:1029F000044BE40F5462D2F80C404FEA144E17F81F
:102A00000E407CB316F80C4003F80C400CF1010C9E
:102A1000D468240C3C5DA44524D216F80C4003F87D
:102A20000C400CF1010CD4684FEA144E17F80E401C
:102A3000A44517D216F80C4003F80C400CF1010C19
:102A4000D468240C3C5DA4450CD216F80C4003F865
:102A50000C400CF1010CD4684FEA144E17F80E40EC
:102A6000A445CFD3006840290CBFC0F89450C0F8EB
:102A70009C500020F0BD016E41F00801016601206C
:102A8000F0BD70B490F85C30012B18BF022B67D1F9
:102A900003689C6D11F0070F01D0E5071DD511F0FB
:102AA000380F01D0A50718D511F4E07F01D06507D4
:102AB00013D511F4F05F01D025070ED511F4604F46
:102AC00001D0E50609D511F4403F01D0A50604D593
:102AD00011F47C0F05D0660603D4DD6D45F00105C9
:102AE000DD6511F0070F01D0E3071DD411F0380F99
:102AF00001D0A30718D411F4E07F01D0630713D4E9
:102B000011F4F05F01D023070ED411F4604F01D00F
:102B1000E30609D411F4403F01D0A30604D411F414
:102B20007C0F06D0630604D50468E36D43F002030E
:102B3000E3650B0605D50468D4F8DC301343C4F80C
:102B4000DC30CB0505D50468D4F8E0301A43C4F86E
:102B5000E0200268506D01435165002070BC704751
:102B6000016E41F002010166012070BC70472DE941
:102B7000F043074681B03868016D446D0C40016D2B
:102B8000456D0D40016DD0F8548008EA010101F057
:102B90003808016D466D0E40016DD0F8549009EA79
:102BA000010101F46029016D4A0604F4E05405F0C6
:102BB000070506F4710607D5416D4A0604D5402184
:102BC0000165384604F05CF83868016DCB050DD519
:102BD000426DD1050AD5D0F8D810D0F8E0304FF4C6
:102BE000807202651940384604F04BF82CB1386801
:102BF00004652146384604F045F82DB1386805656E
:102C000029463846FEF7BEFAB8F1000F06D03868FC
:102C1000C0F850804146384604F035F83868016DF8
:102C20008A0508D5416D8A0505D54FF40071016507
:102C3000384604F029F83868016D0B060CD5426D52
:102C4000110609D5D0F8D410D0F8DC308022026506
:102C50001940384604F019F83868016D8A0408D51F
:102C6000416D8A0405D54FF400510165384604F0E2
:102C70000DF83868016D0A0408D5416D0A0405D5C0
:102C80004FF400410165384604F001F83868026DE0
:102C9000510409D5436D5A0406D54FF480410165AE
:102CA000386E40F080003866B9F1000F06D0386801
:102CB000C0F850904946384603F0EAFF26B138681C
:102CC0000665396E0E433E66386E28B1384601B04F
:102CD000BDE8F04303F0DDBF01B0BDE8F0830000C4
:102CE0000001020304050607080C101418203040E8
:102CF00030B581B0040008BF012053D00021A1628B
:102D000094F85D0020B984F85C10204601F010F9B9
:102D1000022184F85D102168086820F040000860F6
:102D2000E168B1F5E06F04D90022B1F5706F03D10D
:102D300004E04FF4805201D00020A062206B30B933
:102D4000B1F5E06F87BF0221216301202063636832
:102D5000A06821692568034360690B43A1690343A7
:102D600001F40071E0690B43216A0343A06A0B433D
:102D700003432B60A369606A616B1B0C03F00403BF
:102D80000343E0680B4303431A4323685A602168F6
:102D9000C86920F40060C86100212166012084F820
:102DA0005D00002001B030BD2DE9F0470646012549
:102DB00096F85C000C4691464FF00008012808BFC9
:102DC000022000F026811F4686F85C5003F052FF77
:102DD00096F85D20012A82460AD07068B0F5827F9D
:102DE00002BFB0680028042A02D04FF0020809E1AF
:102DF000002C18BFB9F1000F00D00FB9A84601E1AF
:102E000096F85D0004281CBF052286F85D2000208E
:102E10003066C6F84090A6F84670A6F84470B463D1
:102E2000F787B787F064306540F20172F06890422E
:102E300038BF022F04D33368586820F4805003E071
:102E40003368586840F480505860306803685C0606
:102E500003D4036843F040030360F3687068089C80
:102E6000934249D3002818BF012F09D1B26B3068B3
:102E70001188C160B16B881CB063F18F481EF08768
:102E8000F08F28B131688868820715D505E000BF4A
:102E9000B6F846000028F5D1AAE0F08F002818BF48
:102EA000002D09D0B26B1088C8600025B16B881C5A
:102EB000B063F18F481EF08731688868C2070FD56C
:102EC000B6F8460060B1C968306C01800125326CEB
:102ED000911C3164B6F84600B0F10101A6F8461025
:102EE00003F0C8FEA0EB0A00A042C9D314F1010F01
:102EF000C6D04FF0030885E0002818BF012F14D179
:102F0000B26B3068F18F022907D31288C260B16BAF
:102F1000881CB063F18F881E06E011780173B26BD4
:102F2000501CB063F18F481EF087F08FA0B131685C
:102F3000886882071ED5F08F002818BF002D19D091
:102F4000B26BF08F02280CD31288CA60B06B811C60
:102F5000B163F08F811E0BE0B6F846000028E6D181
:102F600046E012780A73B06B411CB163F08F411ECA
:102F7000F187002531688868C20727D5B6F8460072
:102F800020B3306CB6F84620022A13D3C9680180FA
:102F9000306C821C3264B6F84600811EA6F84610DA
:102FA000B6F8460002280FD23168486840F48050D5
:102FB000486009E0097B0170306C421C3264B6F84D
:102FC0004600411EA6F846105FF0010503F052FED0
:102FD000A0EB0A00A04205D2002CA6D14FF00308B6
:102FE00010E000BF14F1010F9FD04FF0030809E07B
:102FF00052462146304600F00EF818B120204FF01E
:1030000001083066012186F85D10002086F85C001A
:103010004046BDE8F08770B505460C461646286860
:10302000816811F4C05F30D014F1010FF7D003F0C4
:1030300021FE801BA04201D2002CF0D128684168FB
:1030400021F0E00141606868B0F5827F0BD1A8688B
:10305000B0F5004F18BFB0F5806F04D12868016843
:1030600021F040010160A86AB0F5005F09D128682D
:10307000026822F4005202602868016841F400519D
:103080000160012285F85D2072E0286881680806E9
:1030900038D514F1010FF8D003F0ECFD801BA042ED
:1030A00001D2002CF1D12868416821F0E001416093
:1030B0006868B0F5827F0BD1A868B0F5004F18BFE3
:1030C000B0F5806F04D12868016821F040010160EB
:1030D000A86AB0F5005F09D12868016821F40051A1
:1030E00001602968086840F400500860012185F8F3
:1030F0005D10002285F85C20286E40F020002866D4
:10310000032070BD2968886810F4C06F39D0087B2F
:1031100014F1010FF6D003F0ADFD801BA04201D2E7
:10312000002CEFD12968486820F0E000486068680A
:10313000B0F5827F0BD1A868B0F5004F18BFB0F58D
:10314000806F04D12968086820F040000860A86AF0
:10315000B0F5005F09D12868016821F400510160D1
:103160002968086840F400500860012185F85D1066
:10317000002085F85C000320296E41F020012966BB
:1031800070BD002070BD00000100020010B50400F9
:1031900001D1012010BD94F83D0028B9002184F828
:1031A0003C10204600F0F3FE022084F83D00211D73
:1031B000206800F03CFA012084F83D00002010BD9A
:1031C0000068DFF85820C16841F00101C1608168E2
:1031D0000A40062A18BFB2F5803F03D0016841F0CB
:1031E000010101600020704710B5040001D10120E9
:1031F00010BD94F83D0028B9002184F83C10204609
:1032000003F048FD022084F83D00211D206800F0F5
:103210000EFA012084F83D00002010BD07000100D7
:10322000F0B581B004000D4608BF012041D094F8EC
:103230003D0028B9002184F83C10204600F010FF22
:10324000022084F83D002268DFF880039168014085
:103250009160211D206800F0EAF92268DFF8701300
:1032600093689669176AA8680E400643A869DFF854
:10327000641346EA0026E8680E400643E8692969B7
:1032800046EA0026286A46EA011646EA00366868D9
:10329000696927F0AA0707432868034347EA01172B
:1032A000936021688E6101212068076284F83D10D7
:1032B000002001B0F0BD10B50446206802699107F6
:1032C00016D5C268910713D56FF002020261012181
:1032D0002177806910F0030F204602D003F0DBFC59
:1032E00004E003F0D9FC204603F0D7FC002020774F
:1032F00020680269510716D5C268510713D56FF0CF
:103300000402026102212177806910F4407F204687
:1033100002D003F0C0FC04E003F0BEFC204603F042
:10332000BCFC0020207720680269110716D5C2680E
:10333000110713D56FF00802026104212177C069DB
:1033400010F0030F204602D003F0A5FC04E003F0C8
:10335000A3FC204603F0A1FC00202077206801692F
:10336000CA0616D5C168CA0613D56FF010010161EF
:1033700008222277C06910F4407F204602D003F073
:103380008AFC04E003F088FC204603F086FC002061
:10339000207720680169CA0708D5C168CA0705D522
:1033A0006FF0010101612046FDF70CFF2068016903
:1033B0000A0608D5C1680A0605D56FF080010161CB
:1033C000204603F06BFC20680169CA0508D5C16876
:1033D0000A0605D56FF480710161204603F05FFC99
:1033E000206801694A0608D5C1684A0605D56FF00C
:1033F00040010161204603F053FC206801698A0600
:1034000008D5C1688A0605D56FF020010161204604
:1034100003F047FC20680269D10208D5C268D102D6
:1034200005D56FF480120261204603F03BFC206852
:103430000269910208D5C268910205D56FF40012A5
:103440000261204603F02FFC206801694A0208D57A
:10345000C1684A0205D56FF480010161204603F07E
:1034600023FC206801690A020AD5C1680A0207D54F
:103470006FF4000101612046BDE8104003F015BC67
:1034800010BD000030B5044681B094F83C000D46F4
:10349000012808BF022000F09780012184F83C1029
:1034A0000220142A84F83D0000F28780DFE802F051
:1034B0000B8585851F85858534858585488585852A
:1034C0005D85858571002068294600F01EF9216818
:1034D000886940F0080088612168886920F004004C
:1034E00088612268916928690143916165E02068DB
:1034F000294600F05BF92168886940F40060886122
:103500002168886920F480608861206881692A695F
:1035100041EA0221816150E02068294600F08DF9DE
:103520002068C16941F00801C1612068C16921F0CA
:103530000401C1612268D16928690143D1613CE07D
:103540002068294600F0B9F92068C16941F400619A
:10355000C1612168C86920F48060C8612068C169C0
:103560002A6941EA0221C16127E02068294600F06A
:10357000E4F92168086D40F0080008652168086DCD
:1035800020F0040008652268116D28690143116567
:1035900013E02068294600F000FA2168086D40F425
:1035A000006008652168086D20F480600865206867
:1035B000016D2A6941EA02210165012084F83D007C
:1035C000002184F83C10002001B030BDF8BFFEFFA0
:1035D000FCFCFFFF0303FFFF10B5044694F83C001A
:1035E000012801D1022010BD012284F83C200220D4
:1035F00084F83D00204600F000FA38B1012184F83B
:103600003D10002084F83C00012010BD2168C868EE
:1036100020F04000C8602168C86820F48040C8607D
:10362000012184F83D10002084F83C0010BD30B426
:103630000468DFF88034984218BFB0F1804F12D090
:10364000DFF87454A8421CBFDFF8882490420AD0E7
:10365000DFF88454A8421FBFDFF860249042DFF8EF
:103660006C54A84218D124F070024C68144398425C
:1036700018BFB0F1804F1FD0DFF83C2490421CBF30
:10368000DFF85054A84217D0DFF84C2490421CBFFA
:10369000DFF82854A8420FD0DFF8242490421CBF42
:1036A000DFF82054A84207D0DFF81C2490421CBF4A
:1036B000DFF81854A84203D124F44072CC681443B4
:1036C0004A6924F080041443046098428C68C46200
:1036D0000A6882621CBFDFF8E443A0420FD0DFF823
:1036E000E03398421CBFDFF8DC23904207D0DFF8BC
:1036F000D83398421CBFDFF8D423904201D10B6924
:1037000003630121416130BC7047F0B4026A520882
:1037100052000262066A43688569DFF8C0230C68BC
:1037200015402C438D6826F002063543DFF884638C
:10373000B0421CBFDFF8842390420FD0DFF88073C3
:10374000B8421CBFDFF87C23904207D0DFF87873C3
:10375000B8421CBFDFF87423904216D1CA6825F026
:103760000805154325F00405B0421CBFDFF84C7373
:10377000B8420ED0DFF84863B0421FBFDFF84423E1
:103780009042DFF84463B04203D0DFF84023904218
:1037900005D14A6923F440731A438B69134343608C
:1037A0008461496841630562F0BC7047F0B4026A05
:1037B000DFF82C3322F010020262046A4568866941
:1037C0000A68334043EA02238A6824F0200444EA6A
:1037D0000214DFF8E02290421FBFDFF8E072B84227
:1037E000DFF8E862B0420CD1CE6824F0800444EAED
:1037F000061424F0400490421CBFDFF8C02290421F
:103800000DD0DFF8BC62B0421CBFDFF8B822904296
:1038100005D0AD4EB0421CBFAC4A904206D14E69B5
:103820008A6925F44065164345EA8605456083614B
:10383000496881630462F0BC7047F0B4026A22F404
:1038400080720262046A4368C669A44A0D6824F45F
:10385000007416408A6844EA02243543954A90422F
:103860001FBF964FB842994EB0420BD1CE6824F498
:10387000006444EA062424F4806490421CBF8F4A0A
:1038800090420BD08E4EB0421CBF8E4A904205D063
:103890008D4EB0421CBF8D4A904206D14E698A6956
:1038A00023F44053164343EA06134360C561496855
:1038B000C1630462F0BC70470000F0B4026A884B38
:1038C00022F480520262046A4568C6690A6833407D
:1038D00043EA02238A6824F4005444EA0234754A15
:1038E00090421FBF754FB842784EB0420BD1CE68A0
:1038F00024F4004444EA063424F4804490421CBF7B
:103900006E4A90420BD06E4EB0421CBF6D4A904240
:1039100005D06D4EB0421CBF6C4A904206D14E6934
:103920008A6925F44045164345EA86154560C3611A
:10393000496801640462F0BC704770B4026A5D4E6D
:1039400022F480320262046A4368056D654A1540BC
:103950000A682A438D6824F4003444EA0544B042DE
:103960001CBF564DA8420BD0554EB0421CBF554D02
:10397000A84205D0544EB0421CBF544DA84204D1B9
:103980004D6923F4803343EA0523436002654968A7
:103990008164046270BC7047000070B4026A22F453
:1039A00080120262036A4468066D4F4A0D68324015
:1039B00042EA05228D683F4E23F4001343EA055383
:1039C000B0421CBF3D4DA8420BD03D4EB0421CBF83
:1039D0003C4DA84205D03C4EB0421CBF3B4DA842D6
:1039E00004D14D6924F4802444EA852444600265AE
:1039F0004968C164036270BC704730B404683448DD
:103A0000A5684A68394B0540154308681D400543C1
:103A1000A5604A68402A11D0502A24D0602A34D0A8
:103A2000702A44D108698A68CB68A16821F47F4173
:103A30000B431A4342EA0022A26038E008680528D6
:103A400014BFB0F1011F012032D0206A226A52084F
:103A500052002262A269096922F0F00242EA0112D0
:103A6000A261206223E008698968226A236A5B08F0
:103A70005B00236222F00A02A36923F0F00343EA09
:103A80000013A3611143216211E008698968226A69
:103A900022F010022262A369226A23F4704343EAEF
:103AA000003322F0A002A36142EA01122262002048
:103AB00030BC7047002C014000040040003401403D
:103AC00000400140004401400048014000500140D6
:103AD0008FFFCFFF00080040000C00408CFFFEFF6E
:103AE000FF8CFFFE8FFFFEFFFF8FFFFEF8FFFEFF44
:103AF00070B490F83C20012A08BF022029D001238D
:103B000080F83C30022280F83D200468DFF8EC3178
:103B10006668A5689C421FBFDFF8E4219442DFF885
:103B2000E4319C4203D126F470024E6816430A4BDE
:103B30008A6809681E4025F080050E4315436660BB
:103B400001230268956080F83D30002180F83C1028
:103B5000002070BC704700008FFFFFFD70B490F82C
:103B60003C20012A08BF022052D0012280F83C20CC
:103B7000CC688A684B68614D24F44074144324F483
:103B800080641C430A680B6924F40064144324F421
:103B900080541C434A690B6B24F40054144324F4EE
:103BA000804423438A69046823F4702343EA024370
:103BB000AC421FBF524A9442524EB44208D123F045
:103BC0008052CB691343AC421CBF4D4EB44202D06D
:103BD0004C4A944217D18A6A23F4700343EA025391
:103BE0000A6A23F08073134323F000764B6A334351
:103BF000AC421FBF424A9442424DAC4203D123F033
:103C00000052CB6A13436364002180F83C1000200B
:103C100070BC7047F0B490F83C30012B08BF022014
:103C20006AD0012480F83C401368012B0ED0022B8F
:103C300011D0042B13D0082B16D0102B19D0202B09
:103C40001CD0402B1ED0802B20D023E000244FF42A
:103C50000075092622E04FF480650A261EE0022442
:103C60004FF400650B2619E003244FF480550C2611
:103C700014E004244FF400550D260FE00524002520
:103C800000260BE006240025002607E00724002577
:103C9000002603E00023002500240026012902D08D
:103CA000022913D024E00168D1F860C057682CEADB
:103CB000030C07FA04F42340926843EA0C03AB4375
:103CC00002FA06F635402B430B6611E00168D1F885
:103CD00064C057682CEA030C07FA04F42340926886
:103CE00043EA0C03AB4302FA06F635402B434B661E
:103CF000002180F83C100020F0BC7047002C0140EF
:103D0000003401400050014000B5DFF8840481B068
:103D1000816841F001018160816801F00101009139
:103D2000009A016841F080510160006800F0805005
:103D3000009004200099FDF77BFCDFF85814086818
:103D400020F48040086001B000BD10B586B0044684
:103D5000142100226846FDF72BFB2168B1F1A04F2A
:103D600037D1DFF83414DFF834040A68521C012A12
:103D700008D1046844F400540460036803F4005359
:103D80000593059B046844F004040460036803F091
:103D900004030593059B046844F0010404600324B4
:103DA000006800F0010005900220059B00900023B0
:103DB00002930A6001946946DFF8E403FDF73EFBD5
:103DC0000720009000220194029269464FF0904033
:103DD00027E0DFF8D003814225D1DFF8BC13DFF8FC
:103DE000BC030A68521C012A08D1046844F4005438
:103DF0000460036803F400530593059B046844F0D2
:103E0000040404600324006800F00400059004200A
:103E1000059B009000230A60019402936946DFF835
:103E20008003FDF70BFB06B010BD81B00168DFF821
:103E3000780381420AD1DFF87403016841F0080178
:103E40000160006800F008000090009801B0704721
:103E500010B586B004461421002201A8FDF7A8FA87
:103E60002368DFF84C138B421ED1DFF83003026861
:103E700042F480320260016801F480310091009ABE
:103E8000016841F0010101600322006800F00100B7
:103E9000009030200099019000210391029201A925
:103EA0004FF09040FDF7CAFA06B010BD10B586B0CD
:103EB00004461421002201A8FDF77AFA2368DFF8EE
:103EC000F4128B4232D1DFF8D402C16841F00071A4
:103ED000C160C16801F000710091009A016841F071
:103EE000020101600222006800F0020000904FF41D
:103EF0004050009901900021039104910292092100
:103F0000059101A9DFF8B002FDF798FA002200211F
:103F10005620FDF797FB5620FDF7BDFB0022002140
:103F20005720FDF78FFB5720FDF7B5FB06B010BDFE
:103F300010B586B004461421002201A8FDF738FA16
:103F40002368DFF878128B421FD19448416941F40D
:103F500080514161416901F480510091009A0168EA
:103F600041F0400101600222006800F04000009032
:103F70001C200099019000210391049102920521D7
:103F8000059101A98E48FDF759FA06B010BD10B58C
:103F900086B004461421002201A8FDF709FA206822
:103FA0008849884222D17D48416941F400614161DC
:103FB000416901F4006100910099026842F0100229
:103FC00002601222006800F0100000904FF4804060
:103FD000009902920121039101900621002205918E
:103FE000049201A97848FDF729FA2FE07749884221
:103FF00010D16A49C86840F02000C8600022C86833
:1040000000F020000090002100983720FDF71AFBF7
:10401000372021E06E4988420BD16049486940F45D
:1040200000304861486900F400300090009806B004
:1040300010BD6849884211D15849486940F4802030
:104040004861486900F48020009000980022002117
:104050001A20FDF7F7FA1A20FDF71DFB06B010BD78
:1040600010B586B004461421002201A8FDF7A0F97E
:104070002168B1F1804F1FD14848C16841F001016A
:10408000C160C16801F001010091009A016841F02E
:10409000080101600222006800F00800009018206A
:1040A000009901900021039104910292022105914F
:1040B00001A94948FDF7C2F906B010BD10B586B098
:1040C0000446142100226846FDF772F923683D4931
:1040D0008B422DD13148026842F002020260016831
:1040E00001F002010591059A016841F001010160AA
:1040F0000222006800F0010005904FF4004005998D
:1041000000900421049101920292039269462A4888
:10411000FDF794F902210191029103914FF4F850B7
:104120000621009004914FF090406946FDF786F912
:1041300006B010BD10B586B004461421002201A8B7
:10414000FDF736F9236825498B421FD11348416991
:1041500041F480414161416901F480410091009A3C
:10416000016841F0100101600222006800F01000B7
:104170000090032000990190002103910491029284
:104180000721059101A91048FDF758F906B010BDA7
:104190005810024008700040501400204C1002409B
:1041A0000008004800010050000C02404810024086
:1041B0000008005000680040000400480030014042
:1041C00000180048002C0140001000480014004076
:1041D0000044014000480140000C00480038014004
:1041E00010B5040015D0D4F8800028B9002184F857
:1041F0007C102046FFF79EFF2421C4F88010216820
:104200000868400840000860204600F01DF80128BA
:1042100001D1012010BDA06A10B1204600F0B4FD0C
:104220002168486820F4904048602168886820F040
:104230002A0088602168086840F001000860204674
:10424000BDE8104000F003BEF0B5054681B02A6815
:10425000DFF8100B1368A968034028690B436969EC
:104260000343E8690B43696E03430B431360002665
:104270005368E868DFF8F01A23F4405303435360AF
:104280000024AB698A421CBF286A03439768DFF8A1
:10429000DC0A07403B439360DFF8D47AD36A686A4C
:1042A0001B0940EA0313BA42D36226D1DFF8C43AAD
:1042B000186800F00300032833D8DFE800F0026D2F
:1042C0005B820127E869B0F5004F40F0EB83082FCF
:1042D00000F2D983DFE817F00900D4021103D703F5
:1042E0005803D703D703D703950302F009FB014610
:1042F000686A002840F08C82B7E2DFF87C7ABA4224
:1043000027D1DFF8703A186800F00C000C2808D8A4
:10431000DFE800F06A0707074207070730070707CB
:10432000570010278A42CDD1082F00F20E85DFE812
:1043300017F009000C059C000C05D8000C050C05B5
:104340000C050D0102F0DCFA0146686A00284DD127
:1043500079E0DFF8287ABA420ED1DFF8183A186807
:1043600010F0300040D0102816D0202802D030287D
:1043700027D0D6E70227D5E7DFF8040A82420DD11D
:10438000DFF8F0793B6813F0C0032DD0402B03D049
:10439000802BEFD0C02BEBE70427C3E7DFF8E479ED
:1043A000BA4210D1DFF8CC39186810F440701BD035
:1043B000B0F5807FF0D0B0F5007FDBD0B0F5407F66
:1043C000AFD10827AEE78A42ABD1DFF8A839186829
:1043D00010F4406008D0B0F5806FDDD0B0F5006F0C
:1043E000C8D0B0F5406FC3E700279BE7012808BF9E
:1043F000022029D0022808BF042025D0032808BFA6
:10440000062021D0042808BF08201DD0052808BF99
:104410000A2019D0062808BF0C2015D0072808BF8D
:10442000102011D0082808BF20200DD0092808BF6F
:10443000402009D00A2808BF802005D00B2808BFDB
:104440004FF4807000D00120B1FBF0F0002800F0A4
:104450007D846A6802EB42039842C0F076841103BF
:10446000814280F0BA8000F070BC686AB0B3012865
:1044700008BFDFF8940AECD0022808BFDFF88C0AE6
:10448000E7D0032808BFDFF8880AE2D0042808BF75
:10449000DFF8800ADDD0052808BFDFF87C0AD8D015
:1044A000062808BFDFF8740AD3D0072808BFDFF852
:1044B000700ACED0082808BFDFF8680AC9D00928DA
:1044C00008BFDFF8640AC4D00A2808BFDFF85C0A16
:1044D000BFD00B2808BF4FF22440BAD0DFF8500AF3
:1044E000B7E702F0DBF90146686A68B3012808BF44
:1044F0000220A9D0022808BF0420A5D0032808BFA5
:104500000620A1D0042808BF08209DD0052808BF98
:104510000A2099D0062808BF0C2095D0072808BF8C
:10452000102091D0082808BF20208DD0092808BF6E
:10453000402089D00A2808BF802085D00B2808BFDA
:104540004FF480703FF480AF01207DE7686A002857
:1045500040D0012808BF4FF480403FF47AAF0228D2
:1045600008BF4FF400503FF474AF032808BF41F276
:1045700055503FF46EAF042808BF4FF480503FF40D
:1045800068AF052808BF40F6CC403FF462AF06286C
:1045900008BF40F6AA203FF45CAF072808BF4FF4DD
:1045A00000603FF456AF082808BF4FF480603FF426
:1045B00050AF092808BF4FF400703FF44AAF0A28F3
:1045C00008BF4FF480703FF444AF0B2808BF802031
:1045D0003FF43FAF4FF400403BE7082F00F211815A
:1045E000DFE817F009000F0147000F0189000F01F4
:1045F0000F010F01C70002F083F90146686A60B33A
:10460000012808BF022029D0022808BF042025D095
:10461000032808BF062021D0042808BF08201DD089
:10462000052808BF0A2019D0062808BF0C2015D07D
:10463000072808BF102011D0082808BF20200DD05F
:10464000092808BF402009D00A2808BF802005D0CB
:104650000B2808BF4FF4807000D001206A68B1FBBE
:10466000F0F65008002110EB062051EB16610023F4
:10467000BEE0686A002836D0012808BFDFF8B468B9
:1046800033D0022808BFDFF8B0682ED0032808BF57
:10469000DFF8A86829D0042808BFDFF8A46824D070
:1046A000052808BFDFF89C681FD0062808BFDFF880
:1046B00098681AD0072808BFDFF8906815D0082836
:1046C00008BFDFF88C6810D0092808BFDFF88468BD
:1046D0000BD00A2808BFDFF8806806D00B2808BF77
:1046E000DFF84C6801D0DFF87468002116EB520047
:1046F000614100237CE002F0D1F80146686A60B3B2
:10470000012808BF022029D0022808BF042025D094
:10471000032808BF062021D0042808BF08201DD088
:10472000052808BF0A2019D0062808BF0C2015D07C
:10473000072808BF102011D0082808BF20200DD05E
:10474000092808BF402009D00A2808BF802005D0CA
:104750000B2808BF4FF4807000D001206A68B1FBBD
:10476000F0F65008002110EB062051EB16610023F3
:104770003EE0686AB0B3012808BF4FF4800633D02A
:10478000022808BF4FF400162ED0032808BFDFF818
:10479000D06729D0042808BF4FF4801624D00528FC
:1047A00008BFDFF8C0671FD0062808BFDFF8B8676A
:1047B0001AD0072808BF4FF4002615D0082808BFD4
:1047C0004FF4802610D0092808BF4FF400360BD0D4
:1047D0000A2808BF4FF4803606D00B2808BF4FF4D4
:1047E000004601D04FF40006002106EB52000023E2
:1047F00002F05CFA0646A6F54071DFF870078142C8
:104800009FE20124A6F54071DFF86007814298E23B
:10481000012808BF022229D0022808BF042225D07F
:10482000032808BF062221D0042808BF08221DD073
:10483000052808BF0A2219D0062808BF0C2215D067
:10484000072808BF102211D0082808BF20220DD049
:10485000092808BF402209D00A2808BF802205D0B5
:104860000B2808BF4FF4807200D001226868B1FBAA
:10487000F2F1420802EB4102B2FBF0F6B6B203E1FC
:1048800002F04AF80146686A60B3012808BF0222B4
:1048900029D0022808BF042225D0032808BF0622F9
:1048A00021D0042808BF08221DD0052808BF0A22ED
:1048B00019D0062808BF0C2215D0072808BF1022DF
:1048C00011D0082808BF20220DD0092808BF402297
:1048D00009D00A2808BF802205D00B2808BF4FF452
:1048E000807200D001226868B1FBF2F1420802EB4D
:1048F0004102B2FBF0F6B6B2C6E0686A002840D0CA
:10490000012808BFDFF8281600F0B680022808BF8B
:10491000DFF8F41500F0B080032808BFDFF8501668
:1049200000F0AA80042808BFDFF8E01500F0A4809A
:10493000052808BFDFF83C1600F09E80062808BF57
:10494000DFF8CC1500F09880072808BFDFF8C41501
:1049500000F09280082808BFDFF8C41500F08C80B2
:10496000092808BFDFF8BC1500F086800A2808BFB8
:10497000DFF8B41500F080800B2808BFDFF8AC1515
:104980007AD0DFF8D41577E001F088FF0146686A35
:1049900060B3012808BF022229D0022808BF0422E0
:1049A00025D0032808BF062221D0042808BF0822EA
:1049B0001DD0052808BF0A2219D0062808BF0C22DE
:1049C00015D0072808BF102211D0082808BF2022C0
:1049D0000DD0092808BF402209D00A2808BF80222C
:1049E00005D00B2808BF4FF4807200D00122686800
:1049F000B1FBF2F1420802EB4102B2FBF0F6B6B2B3
:104A000042E0686AB0B3012808BF4FF4004133D0D8
:104A1000022808BF4FF480412ED0032808BF42F679
:104A2000AA2129D0042808BF4FF4005124D005281A
:104A300008BF41F698111FD0062808BF41F2545113
:104A40001AD0072808BF4FF4805115D0082808BF96
:104A50004FF4006110D0092808BF4FF480610BD0DB
:104A60000A2808BF4FF4007106D00B2808BF4FF486
:104A7000807101D04FF48031686801EB5001B1FBC7
:104A8000F0F6B6B200E001244FF6F071A6F1100086
:104A9000884280F05A813140C6F3420001432868C1
:104AA000C16053E1082F00F24681DFE817F00900EA
:104AB000450081004401C700440144014401030151
:104AC00001F01EFF0146686A60B3012808BF022298
:104AD00029D0022808BF042225D0032808BF0622B7
:104AE00021D0042808BF08221DD0052808BF0A22AB
:104AF00019D0062808BF0C2215D0072808BF10229D
:104B000011D0082808BF20220DD0092808BF402254
:104B100009D00A2808BF802205D00B2808BF4FF40F
:104B2000807200D001226868B1FBF2F101EB500104
:104B3000B1FBF0F6B6B2FFE001F0EEFE0146686AA6
:104B400060B3012808BF022229D0022808BF04222E
:104B500025D0032808BF062221D0042808BF082238
:104B60001DD0052808BF0A2219D0062808BF0C222C
:104B700015D0072808BF102211D0082808BF20220E
:104B80000DD0092808BF402209D00A2808BF80227A
:104B900005D00B2808BF4FF4807200D0012268684E
:104BA000B1FBF2F101EB5001B1FBF0F6B6B2C3E09C
:104BB000686A00283FD0012808BFDFF84C0300F0E6
:104BC000B380022808BFDFF8440300F0AD8003285B
:104BD00008BFDFF83C0300F0A780042808BFDFF817
:104BE000340300F0A180052808BFDFF82C0300F093
:104BF0009B80062808BFDFF8240300F09580072873
:104C000008BFDFF81C0300F08F80082808BFDFF81A
:104C1000140300F08980092808BFDFF80C0300F0B6
:104C200083800A2808BFDFF804037DD00B2808BF63
:104C30004FF2244078D0DFF8F80275E001F02EFE44
:104C40000146686A60B3012808BF022229D0022801
:104C500008BF042225D0032808BF062221D004283B
:104C600008BF08221DD0052808BF0A2219D006282F
:104C700008BF0C2215D0072808BF102211D0082821
:104C800008BF20220DD0092808BF402209D00A28D9
:104C900008BF802205D00B2808BF4FF4807200D0D7
:104CA00001226868B1FBF2F101EB5001B1FBF0F6B3
:104CB000B6B241E0686AA8B3012808BF4FF480404B
:104CC00032D0022808BF4FF400502DD0032808BF6F
:104CD00041F2555028D0042808BF4FF4805023D00B
:104CE000052808BF40F6CC401ED0062808BF40F675
:104CF000AA2019D0072808BF4FF4006014D0082854
:104D000008BF4FF480600FD0092808BF4FF400702F
:104D10000AD00A2808BF4FF4807005D00B2808BFBE
:104D2000802001D04FF40040696800EB5100B0FBD7
:104D3000F1F6B6B200E00124A6F110004FF6F071D2
:104D4000884202D22A68D66000E001240120A5F83A
:104D50006A00A5F868000020E866286701B02046D0
:104D6000F0BD0000F369FFCF00800040FFF4FF11A9
:104D700000380140881002400044004000480040D4
:104D8000004C00400050004090F82820D10706D584
:104D900002685368C16A23F400330B43536090F8F0
:104DA0002820910706D502685368016B23F48033ED
:104DB0000B43536090F82820510706D502685368CA
:104DC000416B23F480230B43536090F828100A07AB
:104DD00006D502685368816B23F400430B4353608C
:104DE00090F82820D10606D502689368C16B23F499
:104DF00080530B43936090F828108A0606D5036809
:104E00009A68016C22F400520A439A6090F82820B4
:104E1000510610D502685368416C23F480130B438C
:104E20005360436CB3F5801F05D15368816C23F444
:104E3000C0030B43536090F82820110606D5026882
:104E40005168C06C21F4002101435160704730B5B6
:104E5000044681B00020C4F8880001F00BFF2268EE
:104E60000546106801071FD52068C16988021BD458
:104E700001F000FF401BB0F1007FF5D3206801680E
:104E800021F4D07101602168886840084000886082
:104E90002021C4F880102020C4F88400002184F868
:104EA0007C10032001B030BD2268106841071FD577
:104EB0002068C16948021BD401F0DCFE401BB0F140
:104EC000007FF5D32068016821F4D071016020686B
:104ED00081684908490081602020C4F880002021B1
:104EE000C4F88410002084F87C0001B0032030BD99
:104EF0002021C4F880102020C4F88400002184F808
:104F00007C10002001B030BD00127A0000093D0085
:104F1000AAB0280080841E00006A180055581400AA
:104F200040420F0020A1070090D0030048E8010094
:104F30000024F4000000127A0000093D00AAB02805
:104F40000080841E00006A18005558140040420F6B
:104F50000020A1070090D0030048E801000024F4DD
:104F60000055150000CC0C0000AA0A0000FD0F003F
:104F70005461510000D4300090F87C10012901D117
:104F800002207047012280F87C202421C0F8801084
:104F9000036819681A68520852001A6000234366B1
:104FA00021F00051026811602023C0F880300021F8
:104FB00080F87C100020704700000000F0B584B03D
:104FC00090F87C20012A08BF022047D0012380F8F6
:104FD0007C302422C0F880200468226823685B08A3
:104FE0005B0023600468A36823F060431943A16059
:104FF0000DF1080343A1D1E900E7C3E900E700BFD1
:1050000042A3D3E90054CDE90054416E29B90123EC
:10501000A0F86A30A0F8683017E0036899689E68C5
:10502000760F02AC490EA55D1DF80660ED0001F09B
:10503000070195FBF6F6A0F86A60645C1DF80110A4
:10504000E40094FBF1F1A0F86810202103681A60D5
:10505000C0F88010002280F87C20002004B0F0BD51
:10506000F0B584B090F87C20012A08BF022047D018
:10507000012380F87C302422C0F880200468226854
:1050800023685B085B0023600468A36823F0606307
:105090001943A1600DF108031AA1D1E900E7C3E9A2
:1050A00000E700BF19A3D3E90054CDE90054416ED5
:1050B00029B90123A0F86A30A0F8683017E0036826
:1050C00099689E68760F02AC490EA55D1DF80660D2
:1050D000ED0001F0070195FBF6F6A0F86A60645C4C
:1050E0001DF80110E40094FBF1F1A0F868102021F4
:1050F00003681A60C0F88010002280F87C2000202D
:1051000004B0F0BD0101010307010000080402041E
:105110000801010110B582B001F0EFFB0B490C4C06
:10512000A0FB0112900AFCF7CEFA211D204601F0E7
:10513000D5FE01F0B3FF07480090231D2246012150
:1051400004F1080002F040F802B010BD986E12831E
:10515000D005002068B6000810B5DFF8704620467C
:10516000FDF771FB002201212046FDF78AFC4FF07C
:1051700080420021DFF85806DFF85836426081602F
:105180004FF40022C26001614FF4801242614FF47B
:105190000011002203608161C261026210BD002221
:1051A000022010B5DFF83016DFF820464A6088602C
:1051B0000122CA6000204FF0804308616FF0004276
:1051C0000B604A6182B02046FDF7F2FA012200929C
:1051D0000123022202212046FDF717FBDFF8FC0520
:1051E00000210171C17081704170017002B010BD69
:1051F00070B44688002100220023A6F1650440F225
:105200006B75AC4238BF0121848800EE106A01EE54
:10521000904AB8EE400AF8EE611A80EE210A9FED3E
:10522000311AB4EE410AF1EE10FA07D5DFED560A55
:10523000B4EE600AF1EE10FAA8BF01228079FF28CF
:1052400014BFAA28012311401940481E70BC804198
:10525000C043C00F7047417800220023FF2914BFCC
:10526000AA2901224188002902BF80880028012341
:105270001A40501E8041C043C00F70474FF40022B7
:10528000DFF84C15DFF86405CA600860DFF86025B8
:10529000107881F82400927881F82520DFF84425E1
:1052A000B2F9180000EBD070401081F82600507F52
:1052B00000B9D07EDFF8303581F82700B3F90C3023
:1052C00081F82930181281F82800B2F9142081F8E9
:1052D0002B20101281F82A0001F12402DFF8EC04DF
:1052E000FDF7C8BA9B99193E4FF440300022DFF811
:1052F000E014C8608A8481F8262001F12402DFF8D6
:10530000F834DFF8C8040B60FDF7B4BADFF8C01456
:10531000DFF8E4340B604FF440300022C8608A8428
:10532000012381F8263001F12402DFF8A004FDF703
:10533000A1BADFF89C14DFF8C4340B604FF40022EC
:10534000CA6081F82400002381F82530CB848B6269
:1053500001F12402DFF87404FDF78CBADFF8701451
:10536000DFF89C340B604FF40022CA6081F82400FF
:10537000002381F82530CB848B6201F12402DFF811
:105380004C04FDF777BA000090C2753CF0B5DFF829
:105390007404DFF83C440168C1F3074001F0FF01E9
:1053A000322881B02063616308D0C0F00D823428B8
:1053B00000F06181C0F0298101B0F0BDDFF81C046C
:1053C000DFF844540178297001294378AB71C27821
:1053D000837843EA02236B804279037943EA02230C
:1053E000AB80C279807940EA0220288113D100F095
:1053F0008FFB00F072FD00F091FBDFF8E423DFF893
:10540000E40300231380C3714FF40022DFF8EC3370
:105410002360E2601EE1022940F07F802846FFF70A
:10542000E7FE84F82C00DFF8BC73384600F0B6FDC8
:1054300084F82D0094F82C00012804BF94F82D0066
:10544000012858D1B5F902007880A879FF2808BF53
:10545000012003D0AA2802D14FF0FF3078702889AC
:10546000DFF8A86301F018FFDFF8A423DFF8A43306
:1054700001F020FF01F0F4FFB0600021A888DFF800
:105480009833DFF8982370801A60DFF868030170A2
:10549000DFF88C0300F051FB97F90150B7F90230A7
:1054A000DFF88023718815FB03F383FB020202EB14
:1054B000D27000B200F01EFB00F024FB00F0BAFC3A
:1054C000002101204FF400227977387084F82400FD
:1054D0000020CA4BE26084F82500E084A0622360CB
:1054E00004F124022146B948FDF7C4F9CE4900224F
:1054F0000A7001B0F0BD0020788000F009FB00F0D8
:10550000ECFC00F00BFBB648BC4B002101804FF4D3
:1055100000222360E26002219DE0032914D1B14DF5
:1055200095F9010000F09AFBC049B44B02200870C5
:105530000022B648427102730420EA7128704FF4C9
:1055400000222360E26085E004290CD0052908D1FF
:10555000FFF7CAFEA348A94B827B511E81732360CB
:1055600075E006291CD19F4D0020688000F0D0FA1C
:1055700000F0B3FC00F0D2FA994900200880E871ED
:1055800004202870FFF7C2FEA87B9C49401CA8732A
:1055900001224FF400202160E06084F824205CE0C8
:1055A000072914D18F4D95F9010000F057FB9F4852
:1055B0000222027000219548417101730420E971B3
:1055C0002870FFF7A3FEA87B401CA8733DE00829C4
:1055D00040F0FA804FF40020E0600121874A226009
:1055E000002084F8241084F82500E084A06204F1EF
:1055F000240221467548FDF73DF90A2000F02AF9FA
:1056000001B0BDE8F040FCF751B88948734A894DB4
:10561000012141718848117801700022714842804F
:10562000828002618271427784488271284600F04C
:10563000B1FA284600F0B3FA814801F045FF8148ED
:1056400001F042FF804801F03FFF6C4A22604FF4B6
:105650000020E060012184F8241004F12402214696
:1056600001B0002084F82500E084A062BDE8F0408D
:105670005648FDF7FFB85948744D02782A704178B2
:105680006970C278817841EA0221698042790079A3
:1056900040EA0220A8802878022874D1514E304672
:1056A00000F07CFC84F82D002846FFF7D4FD84F838
:1056B0002C0094F82D0000281CBF94F82C00002822
:1056C00044D00021B18071806878FF2807D16048FC
:1056D000007901280BD002280CD1012009E0AA286A
:1056E00008D15B480079012803D0022802D14FF08D
:1056F000FF307070012184F82E10B171F17100201B
:105700007077002131703161454D284600F015FA5F
:10571000284600F019FA284600F00FFA4FF400214D
:10572000E1600120354A2260002184F8240084F8D9
:105730002510E184A16204F1240221462348FDF7EB
:1057400099F83C480121017101B0F0BD00F0E0F989
:1057500000F0E4F94FF40020E0600221274A2260C3
:10576000002084F8241084F82500E084A06204F16D
:10577000240221461548FDF77DF80020F08001B095
:1057800004203070F0BD01281ED100F0C1F900F0F6
:10579000C5F9134800214FF40022018000200121A7
:1057A000164BE26084F8241084F82500E084A0629F
:1057B000236004F1240221460448FDF75BF8094800
:1057C0000021C1800421017001B0F0BDD40D002082
:1057D000781300200201090EE0130020D8130020E6
:1057E0004C140020280F0020681100202010810791
:1057F00088100020DF100020203034182010790796
:1058000020108207B01300201C140020F813002081
:10581000FCA9F1D24D62503F341400200000204119
:10582000AC100020ABAAAA2AE01000200814002027
:10583000C8100020D010002009140020C010002043
:1058400014010020400100206C0100203C140020C5
:10585000B810002030B581B0054601F00BFA15F103
:10586000010F044602D005498868451901F002FA83
:10587000001BA842FAD301B030BD00BFDC050020F8
:1058800001600271836001F029BE000030B581B073
:1058900004462DED028B207A012823D1A088344ABA
:1058A000002113461D688542A2BF491C5D688542E0
:1058B000A2BF491C9D68854240DB491C0C339629D8
:1058C000F0DB9FED2C8B607801F0E6FC2B4A2C4B33
:1058D00001F0F0FC53EC182B01F0CAFF02F0F0F8D5
:1058E00020706070607A012824D1E088204A00216D
:1058F00002F516731D688542A2BF491C5D6885428A
:10590000A2BF491C9D68854225DB491C0C339629A2
:10591000F0DB9FED188BE07801F0BEFC174A184BC6
:1059200001F0C8FC53EC182B01F0A2FF02F0C8F8FC
:10593000A070E070BDEC028B01B030BD02F5966046
:1059400030F8210001F0A8FC0E4A0F4B01F0B2FC28
:1059500041EC180BB7E702F5966030F8210001F032
:105960009BFC084A084B01F0A5FC41EC180BD2E760
:10597000EC05002000000000B0CCEC40989999990B
:105980009999B93FCDCCCCCCCCCCEC3F70B50026AE
:1059900000240025012905D100F10A06051D00F1AA
:1059A000080406E0022904D100F10B06851D00F170
:1059B000090401F0FAFE70B9307801F0BAFE012056
:1059C000FFF748FF01F0C1FE4FF6FF71884202D099
:1059D00028800120207070BD401E082821D8DFE8F3
:1059E00000F005080B0E1114171A1D0040F61A20BE
:1059F000704740F68960704742F65760704741F241
:105A00006C40704742F24720704743F238107047AD
:105A100041F2E410704742F63970704741F2745019
:105A200070474FF0FF30704700B581B021208DF8EE
:105A300000001820BDF8001002F037F901B05DF841
:105A400004EB0421192002F030B930B581B0FFF722
:105A5000EBFF00214CF21800194D1A4C02F0D1F85E
:105A60002880002144F2190002F0CBF82070298828
:105A70002078ADF800109DF8002002F0AC02202A3A
:105A800003BF00F0E700042801200020607001B08F
:105A900030BD30B581B005460B4C02F01DF92080B9
:105AA00001462846814208D002F025F902F014F997
:105AB0002080A84218BF002000D1012001B030BDD5
:105AC0001A140020541400205614002000B581B090
:105AD000002147F6FE7002F094F8C0F380310029EF
