:020000040800F2
:10000000701800200DD200084DD200087DC70008EE
:1000100051D2000855D2000859D200080000000053
:100020000000000000000000000000005DD2000899
:1000300061D200080000000065D20008DDC700089A
:1000400069D200086DD2000871D2000875D200088C
:1000500079D200087DD2000881D2000885D200083C
:1000600089D200088DD2000891D2000895D20008EC
:1000700099D200089DD20008A1D20008A5D200089C
:10008000A9D20008ADD200085DC60008B1D20008B0
:10009000B5D20008B9D20008BDD20008E5CF0008EB
:1000A00085C6000877C60008EBCF0008C1D200085B
:1000B000B5C60008C5D20008C9D20008CDD20008D4
:1000C000D1D20008D5D20008D9D20008DDD200086C
:1000D000E1D200081FC70008E5D20008E9D20008F5
:1000E00001C80008EDD20008F1D20008F5D20008DE
:1000F000F9D20008FDD2000801D3000805D300089A
:1001000009D300080DD3000811D3000815D3000847
:1001100019D300081DD3000821D3000801D000081E
:1001200025D3000829D300082DD3000831D30008B7
:1001300035D3000839D300083DD3000841D3000867
:1001400045D3000849D300084DD3000851D3000817
:1001500055D3000859D300085DD3000861D30008C7
:1001600065D3000869D300086DD3000871D3000877
:1001700075D3000879D300087DD3000881D3000827
:1001800085D3000889D300088DD3000891D30008D7
:1001900095D300080000000007D000080DD000082B
:1001A00099D300089DD30008A1D30008A5D3000867
:1001B000A9D30008ADD30008B1D30008B5D3000817
:1001C000B9D30008BDD30008C1D30008C5D30008C7
:1001D000C9D30008CDD300082DE9F14F88B0002025
:1001E00002900190002401F079FD002618B10E2044
:1001F00009B0BDE8F08F01F0D3FCDFF84C0CDFF85C
:100200004C2C012141704FF6FF70118881420FBFC5
:100210004FF480291068DFF8801C01EA40294FF66E
:10022000F0700146B1FBF9F109FB11094FEAD92938
:10023000DFF8641CDFF8107C4FF6FF75964633E05C
:1002400001EA48281DE04FF6F0721346B3FBF0F3C5
:1002500000FB1320C00A001D814530D2BEF800000B
:10026000A84208BF00200AD0DEF800801046BEF881
:10027000002001EA4823AA42B0FBF3F0E0D14FF49A
:1002800080284FEAC92208FB002808F100684FF4D3
:10029000807000BFC7F80880D8E90023401E08F12D
:1002A0000808F7D109F10109BEF80000A8420EBF05
:1002B0004FF48020DEF8000001EA4020C3E7394611
:1002C00000204870BEF80000A8420FBF4FF4802005
:1002D000DEF80010DFF8C00B00EA41201146B1FB48
:1002E000F0F100FB11224FEAD22A00210020A4469F
:1002F0004FF0FF3B60E000BF4FF6F0731C46B4FBCD
:10030000F2F402FB1432D20A121D924563D2BEF8F7
:1003100000304FF6FF72934208BF4FF000090DD036
:10032000DEF80040DFF8705B4FF6F07305EA442515
:10033000B3FBF5F9BEF80030934203D14FF48022AD
:1003400004E000BFDFF8502B02EA44224FEACA2340
:1003500002FB093909F1006909F10807D9E90045EB
:10036000CDE90645D7E90023CDE9042309F11005BD
:1003700009F11809D5E90023D9E90089D94508BF51
:10038000D84517D15B4508BF5A4505D000B9564638
:10039000D446401C0EE000BFDDE904455D4508BFC2
:1003A0005C4505D1DDE906455D4508BF5C4501D0EA
:1003B00011F101010AF1010ABEF800304FF6FF7297
:1003C00093420FBF4FF48022DEF80030DFF8C82AD6
:1003D00002EA432290E70029CDF800C040F0928065
:1003E000002800F09E80DFF864CABCF800004FF6D9
:1003F000FF7A50454FF4802E02D17046714610E0CE
:10040000BCF80010DCF80020DFF88C0A514500EA47
:10041000422002D17146002212E0DFF87C1A01EA84
:100420004221BCF80020524508BF00220CD01C46D7
:10043000DCF80030DFF8602A02EA4322B4FBF2F273
:10044000BCF80030534501D1734605E0DCF80040AC
:10045000DFF8443A03EA44234FF6F075A84641F624
:10046000F074B8FBF0F800FB1840A6EBD026284645
:10047000761EB0FBF1F006F0030601FB105106EB0F
:10048000D126F60203FB026606F1006606F10807B4
:10049000D6E90023D7E9000106F1100B1836DBE995
:1004A0000089D6E900234FF0FF30834208BF824223
:1004B00028D0BCF80060564508BF724606D0DCF86C
:1004C0000010DFF8D43903EA412201D1734601E07C
:1004D00003EA41232E460098B6FBF2F602FB1644CF
:1004E000A0EBD4202A46401CB2FBF3F200F003003C
:1004F00003FB1253012100EBD32001F0AFFA0028D7
:1005000040F09E84DFF8442910884FF6FF7188423E
:100510000FBF4FF480201168DFF87C0900EA41200A
:1005200004E009B0BDE8F04F00F092BC4FF6F07E59
:100530007146B1FBF0F100FB11EE4FEADE2E1746DB
:10054000DAE000BF4FF6F0784146B1FBF0F100FB76
:100550001180C00A001D864580F0418138884FF621
:10056000FF7A504508BF00240AD03A683D88DFF87A
:10057000280900EA42235545B8FBF3F440F0048013
:100580004FF4802002E000BF00EA42204FEACE2272
:1005900000FB042404F1006404F10805D4E900011F
:1005A000CDE90601D5E90023CDE9042304F11001CA
:1005B0001834D1E90001D4E900454FF0FF329542EB
:1005C00008BF944240F09680914208BF904240F0AC
:1005D0009180DDE904234FF0FF30834208BF82425F
:1005E00040F08880DDE90623834208BF824200F0A4
:1005F00081803A8852454FF4802104D03868DFF872
:10060000981801EA40214246B2FBF1F201FB128147
:10061000BEEBD12FDFF880584FF4802010D03988FE
:1006200051450EBF01463B6805EA43214346B3FBF3
:10063000F1F3AEF1020201FB1381B2EBD12F05D130
:100640003A88524565D1024601466EE039885145E7
:1006500002D1014602460BE03A883B68524505EA62
:10066000432103D1024600240DE000BF05EA4322E6
:100670003B88534508BF002408D03E68444605EA3D
:100680004623B4FBF3F43E88564501D1054602E00B
:100690003B6805EA4325434641F6F070B3FBF1F3AE
:1006A00001FB1301AEEBD1214046491EB0FBF2F035
:1006B00001F0030102FB108201EBD221C90205FB0C
:1006C000041404F1006404F10806D4E90023D6E917
:1006D000000104F110051834D5E90001D4E9002324
:1006E0004FF0FF34A34208BFA24203D1A14208BF8A
:1006F000A04263D10EF1010E38884FF6FF71884297
:100700000FBF4FF480203968DFF88C0700EA4120E2
:1007100018E739883A68514505EA422202D1014674
:1007200000260CE0396805EA41213B88534508BFA3
:10073000002607D03C6805EA4426B8FBF6F63B885D
:10074000534501D1054602E03C6805EA442543468D
:1007500041F6F070B3FBF2F302FB1302AEEBD222D0
:100760004046521CB0FBF1F002F0030201FB108185
:1007700002EBD122D20205FB062606F1006606F145
:100780000802D6E90001D2E9002306F11004183668
:10079000D4E90045D6E900894FF0FF36B14508BFDE
:1007A000B045A7D1B54208BFB442A3D1B34208BFF8
:1007B000B2429FD1B14208BFB0429BD1DFF8880658
:1007C00080F800E001220021002000F0A3FEB0F537
:1007D000807F18BF0C2040F03083012001904FF63D
:1007E000FF71388888420FBF4FF480203968DFF8E6
:1007F000A80600EA41204FF6F0763146B1FBF0F151
:1008000000FB1166DDF808C0DFF88CE6F60A4FF64B
:10081000FF743D464FF0FF3B56E02B680EEA432342
:100820000AE02B6852460EEA4323B2FBF3F22B8810
:10083000A342F2D14FF48023D14641F6F077B9FBC1
:10084000F0F900FB1970A6EBD020D046401CB8FB95
:10085000F1F800F0030001FB18A100EBD120C00269
:1008600003FB020303F1006303F1080AD3E900016B
:10087000CDE90401DAE90089CDE9028903F110012B
:100880001833D1E90001D3E90089D94508BFD8451B
:1008900019D1594508BF584515D1DDE9020159451F
:1008A00008BF58450FD1DDE90401594508BF584537
:1008B00040F00980BCF1000F40F0E081DFF88805CE
:1008C00006704FF0010C761C2888A0420EBF4FF432
:1008D000802028680EEA40204FF6F07A5146B1FB9E
:1008E000F0F100FB11A0C00A001D864280F0C48018
:1008F0002888A04208BF4FF0000905D02B680EEAF7
:100900004322BAFBF2F903D14FF4802002E000BF8A
:100910000EEA4320F10200FB091909F1006909F10F
:100920000807D9E90023D7E90001CDE9020109F15F
:10093000100209F11809D2E90023D9E90089D94543
:1009400008BFD845BFD15B450CBF5A450096BAD108
:10095000DDE902235B4508BF5A45B4D02B88A3428A
:100960000EBF4FF4802028680EEA40205146B1FBAC
:10097000F0F100FB11A0B6EBD02F0FD0A3420EBFB9
:100980004FF4802028680EEA40205246B2FBF0F275
:10099000B11E00FB12A0B1EBD02F05D1A34258D15C
:1009A0004FF48020014661E0A34203D14FF480213F
:1009B0000A460AE029680EEA412103D14FF4802259
:1009C00000200BE02A680EEA422208BF002009D06E
:1009D0002B6850460EEA4323B0FBF3F02B88A3426A
:1009E00040F003804FF4802302E02B680EEA43239B
:1009F000D14641F6F077B9FBF1F901FB1971A6EB8D
:100A0000D121D046491EB8FBF2F801F0030102FBE8
:100A100018A201EBD221C90203FB001000F1006A09
:100A20000AF10808DAE90023D8E900010AF11009FF
:100A30000AF1180AD9E90001DAE90089D94508BFA5
:100A4000D8457FF440AF594508BF58457FF432AFD1
:100A500039E729882A68A1420EEA422004D14FF4DE
:100A600080210022E3E600BF0EEA42212A88A2424A
:100A70007FF4D7AE0022DDE60099BCF1000F2FD144
:100A800028460288A24208BF4FF480221FBF026896
:100A90000EEA42220588A54202D14FF4802402E0EA
:100AA00000680EEA4024554641F6F073B5FBF2F5B6
:100AB00002FB1532A1EBD2215246491CB2FBF4F2E3
:100AC000DFF8840301F0030104FB12A401EBD4213D
:100AD00001700221007800F0C1FF002840F0B081D1
:100AE000DFF86443DFF8B0A32678DFF860830020E6
:100AF000608020212078616020258DF80000F602BA
:100B00004FF480274FF6FF7EB8F80000704508BF0D
:100B100000200BD0D8F80010B8F800304FF6F07075
:100B20000AEA41227345B0FBF2F001D1394601E0F7
:100B30000AEA412101FB0060281800F100605946D3
:100B4000D0E900238B4208BF5A4509D06088401C79
:100B50006080083560680830B5F5006F6060D3D3F9
:100B60009DF800C0574665464FF6F07B4FF4802E47
:100B70004FF6FF76C246894605E000BFB24841887D
:100B8000FC3141806546BAF80010B1420EBF704694
:100B9000DAF8000007EA40205946B1FBF0F100FB0B
:100BA00011B0BCEBD02F6DD0BAF80020B2420EBF0E
:100BB0007046DAF8000007EA40205A46B2FBF0F22D
:100BC000ACF1020100FB12B0B1EBD02F5AD0BAF851
:100BD0000000B04208BF70461FBFDAF8001007EAF5
:100BE0004120BAF80020B24202D1714602E000BFB3
:100BF00007EA41215B4641F6F072B3FBF0F300FBDC
:100C00001320ACEBD020401E00F003025846B0FB8E
:100C1000F1F001FB10B102EBD12CBAF80010B14297
:100C200008BF002409D0DAF80030BAF8000007EA5B
:100C30004322B042BBFBF2F402D1714602E000BF96
:100C400007EA43214FEACC2001FB040404F10064CD
:100C500004F10808D4E90023D8E9000104F11005E3
:100C60001834D5E90001D4E900454D4508BF4C458D
:100C700004D1494508BF48457FF480AF0A2009B038
:100C8000BDE8F08F5246314613888B4208BF70464C
:100C90001FBF106807EA402014888C4201D17346B8
:100CA00002E0166807EA4623DA469DF8006041F63E
:100CB000F074BAFBF0FA00FB1A40A6EBD0265846B7
:100CC0000446761CB4FBF3F406F0030603FB14039E
:100CD00006EBD32613888B4208BF002008D0D2F839
:100CE00000C0148807EA4C238C42B0FBF3F000D11B
:100CF0007346F10203FB001000F1006E5F46DFF85F
:100D000098914FF480284FF6FF7A144628E001218D
:100D1000304600F06BFF002843D12088504544D175
:100D2000404641463B4641F6F072B3FBF0F300FB10
:100D30001320A6EBD0263846761CB0FBF1F006F067
:100D4000030601FB107106EBD1262188514536D1EF
:100D5000002041464FEAC62E01FB00EE0EF1006E68
:100D6000AE4238D09DF820000028D0D04FF0110BB3
:100D70004FF4807C4FF0FF32DEE9000191420CBF5E
:100D800090424FF0100BBCF1010C0EF1080EF3D1A4
:100D9000BBF1100FC1D10121304600F027FF002820
:100DA000BBD0012009B0BDE8F08F228820685245F1
:100DB00009EA4020B5D0216809EA4121B2E721685B
:100DC0002288384609EA41235245B0FBF3F0C0D0EF
:100DD00009EA4121BEE700F03CFF019860BB1A4CD4
:100DE0006088B0F5FC7F27D2012000F062FA10F194
:100DF000010F25D0154B1988514508BF002108D097
:100E000039461F681E8809EA47255645B1FBF5F1AA
:100E100000D14546C00205FB0100616808180022A8
:100E2000002300F1006000F0DDFE48B96068083082
:100E300060606088401C6080002009B0BDE8F08FD1
:100E4000022009B0BDE8F08F00000020E075FF1F10
:100E50002DE9F04F81B0824600F040FF18B10E201E
:100E600001B0BDE8F08FDFF8A846DFF82C802188BC
:100E70004FF6FF794FF4802B49450EBF5E46206840
:100E800008EA40264FF6F0752846B0FBF6F006FB60
:100E90001056F60A14E000BF00FEFF012946B1FB20
:100EA000F0F100FB1150C00A001D864243D2BAF196
:100EB000000F0DD10121304600F098FEB8BB761C22
:100EC000218849450EBF5846226808EA4220E5E7D6
:100ED0002088484508BF4FF0000E07D021682288BF
:100EE00008EA41234A45B5FBF3FE01D1594601E02A
:100EF00008EA4121F00201FB0E0E11270EF1006EEF
:100F00004FF4807C4FF0FF32DEE9000191420CBFCC
:100F100090421027BCF1010C0EF1080EF4D1102FF5
:100F2000CDD10121304600F061FE0028C7D001205C
:100F300001B0BDE8F08F00F08CFE218849450EBF5E
:100F40005846206808EA40202A46B2FBF0F200FB2F
:100F500012500221C00A00F081FD18B1022001B038
:100F6000BDE8F08FDFF8EC0A0021418022884A4575
:100F70001CBF216808EA412B2A46B2FBFBF20BFB9F
:100F80001255ED0A202105704160002001B0BDE836
:100F9000F08F10B50C4682B001001CBF4FF6FF71F8
:100FA000884208D000220092694600F09FF800991C
:100FB000216002B010BD082002B010BD2DE9F04F35
:100FC000DFF84C75DFF8901A81B03A884FF6FF7B56
:100FD0004FF4802E5A450EBF7046386801EA402013
:100FE0004FF6F0763246B2FBF0F200FB1260C00A18
:100FF00000E050463B885B450EBF72463A6801EA06
:1010000042223346B3FBF2F302FB1362D20A121DF3
:10101000904266D23A885A4508BF002405D03D6800
:1010200001EA4523B6FBF3F400D17346C20203FB89
:10103000042404F1006404F1080AD4E90085DAE923
:10104000002304F110091834D9E90085D4E90023FC
:101050004FF0FF3400F1020AA34208BFA242C8D0F9
:1010600000F1010CD4452ED23A885A4508BF00261B
:1010700007D03D684FF6F07301EA4524B3FBF4F660
:1010800002D1734602E000BF01EA45234FEACC22B9
:1010900003FB062606F1006606F10802D6E9008584
:1010A000D2E9002306F110021836D2E90049D6E948
:1010B00000854FF0FF32954208BF904511D00CF1EA
:1010C000010CD445D0D3022100F090FD18B10120CD
:1010D00001B0BDE8F08F00F0BCFD002001B0BDE81C
:1010E000F08F052001B0BDE8F08F00002DE9F24F30
:1010F000064682B0002000F0DCF8054615F1010F2D
:1011000008BF032000F0D280DFF804C4BCF8000060
:101110004FF6FF79484508BF4FF0000E0DD0DCF8C0
:101120000020BCF80030DFF8A40A4FF6F07100EAA6
:1011300042244B45B1FBF4FE02D14FF4802001E084
:1011400000EA4220EA0200FB0E2E0EF1006E0EF1C4
:101150000803DEE90001D3E900480EF110020EF1A8
:101160001801D2E90023ADF800604FF0FF30D1E95B
:10117000006783465F4508BF864209D1834208BFA6
:10118000824205D1804508BF844200F08E8000BFB6
:10119000BDF80010029EDFF8387A0EF5FF6EFC20D5
:1011A000DEE900235B4508BF5A4502D094B28C4269
:1011B00004D0401EAEF1080EF2D10FE0BC6844F03E
:1011C0000104BC603B603A803C68A4B2B4EB124FAF
:1011D000EFD13360002003B0BDE8F08FADF8001010
:1011E0000296BCF800204A4508BF4FF4802006D084
:1011F000DCF80000DFF8D41901EA402002D14FF4F6
:10120000802103E0DCF8003001EA43214FF6F0735F
:1012100041F6F072B3FBF0F300FB1320A5EBD025F1
:101220004FF6F07002466D1EB2FBF1F205F00305B9
:1012300001FB120105EBD125BCF80010494508BFA0
:1012400000200BD0DCF80010BCF80020DFF87C494F
:1012500004EA41234A45B0FBF3F002D14FF4802E5B
:1012600001E004EA412EEA020EFB002E0EF1006EB0
:101270000EF10803DEE90001D3E900230EF11004AA
:101280000EF1180AD4E90001DAE900675F4508BFEA
:101290005E457FF47DAF594508BF58457FF478AF70
:1012A0005B4508BF5A457FF473AF072003B0BDE824
:1012B000F08F2DE9F14FDFF89C77954CDFF80CE9C2
:1012C00088B0387800904FF6FF7820884FF4802C53
:1012D000404508BF002609D0226823884FF6F070E9
:1012E0000EEA42214345B0FBF1F600D16146009879
:1012F000C00201FB060606F1006606F10801D6E908
:1013000000ABD1E90023CDE9042306F11000183623
:10131000D0E90001CDE902014FF0FF32D6E900012A
:1013200091420CBF9042042514D1DDE902019142A3
:101330000CBF904203250DD1DDE904234FF0FF30AF
:1013400083420CBF8242022504D183450ABF8245F5
:10135000012500252188414508BF604603D020684B
:101360000EEA402001D1614602E021680EEA4121E7
:101370004FF6F07B5A4641F6F07A009EB2FBF0F24F
:1013800000FB12A0A6EBD0265846761CB0FBF1F06D
:1013900006F0030601FB10B106EBD126218841457A
:1013A00008BF4FF0000907D0216822880EEA4123C8
:1013B0004245BBFBF3F901D1604601E00EEA412052
:1013C000F30200FB093909F10069D9E90001CDE90F
:1013D000060109F10800D0E90023CDE9042309F151
:1013E000100009F11809D0E90001CDE90201D9E99D
:1013F00000234FF0FF3083420CBF8242042018D1FB
:10140000DDE902014FF0FF3291420CBF9042032010
:101410000FD1DDE904234FF0FF3083420CBF82423D
:10142000022006D1DDE9062383420ABF8242012061
:1014300000202188414508BF624606D022680EEA96
:1014400042221CBF23680EEA432C5C4600999DF89B
:101450002030B4FBF2F402FB14AAA1EBDA215A46C5
:10146000491EB2FBFCF201F003010CFB12BB002B86
:1014700001EBDB2135D0022B3FD043D2022D15D119
:101480007968B1F5006F2ED3042803D1FFF796FDDC
:10149000002837D10098032100F0E0FA002831D16C
:1014A0000221304600F0DAFAA8B12BE0012D29D153
:1014B0007968B1F5006F16D3042802D1FFF77EFDDD
:1014C00000BB0098032100F0C9FAD8B901213046C9
:1014D00000F0C4FAB0B92020786009B03046BDE809
:1014E000F08F022D03D1009809B0BDE8F08F012DD7
:1014F00008D1084609B0BDE8F08F18B9304609B0E8
:10150000BDE8F08F4FF0FF3009B0BDE8F08F00006C
:10151000E075FF1F2DE9F74F84B000219DF81800FA
:10152000009100280CBF02200120FFF7C2FE0746F1
:1015300017F1010F08BF042000F03582DFF8140511
:10154000002141800770202141609DF8180030B9CA
:101550000121384600F082FA002840F01E82DFF8B0
:10156000744620884FF6FF75A84208BF4FF48020CC
:1015700007D022882068DFF8E014AA4201EA402060
:1015800002D14FF4802102E0236801EA43214FF6A3
:10159000F07341F6F072B3FBF0F300FB1320A7EBFE
:1015A000D0274FF6F07002467F1EB2FBF1F207F033
:1015B000030701FB120107EBD1272188A94208BFCD
:1015C0004FF0000E0AD002462168DFF88C0400EAD2
:1015D0004120B2FBF0FE2288AA4202D14FF48020C3
:1015E00003E0DFF8740400EA4120F90200FB0E1E5C
:1015F0000EF1006E0EF10806DEE90023D6E90001C7
:10160000CDE902010EF110020EF1180ED2E90089A7
:10161000DEE900234FF0FF304FF48026834208BFFD
:1016200082421AD10246814508BF904508D09DF8F4
:101630001800012800F0EE800A2007B0BDE8F08F06
:10164000DDE90201914208BF9042F5D004213846FD
:1016500000F004FA002840F0A0812088A84208BFCA
:10166000314607D023882168DFF8EC03AB4200EA5B
:10167000412101D1304602E0226800EA42204FF6C3
:10168000F07241F6F07AB2FBF1F201FB12A1A7EB86
:10169000D1274FF6F0710A467F1EB2FBF0F207F039
:1016A000030700FB121007EBD02701972088A84200
:1016B00008BF00270AD008462168DFF89C2302EA09
:1016C0004122B0FBF2F72088A84201D1304603E066
:1016D000DFF8840300EA41200199C90200FB0717E3
:1016E00007F1006707F1080CD7E90023DCE90001E6
:1016F00007F1100E1837DEE90089D7E900234FF013
:10170000FF30834208BF824227D1814508BF804510
:1017100000F07B802288AA4208BF00200AD02768F8
:101720002388CD494FF6F07001EA4722AB42B0FB67
:10173000F2F001D1314601E001EA4721019EF602B3
:1017400001FB00604FF0AA3200F100601346183030
:1017500000F048FA002840F02081019F4FF48026D5
:101760002188BD48A94208BF31461FBF226800EA50
:1017700042212388AB4201D1324601E000EA4222F5
:101780004FF6F073B3FBF1F301FB13A1A7EBD127E5
:101790004FF6F0710B467F1EB3FBF2F307F0030721
:1017A00002FB131207EBD2272288AA4208BF4FF090
:1017B000000C06D0D4F800C000EA4C23B1FBF3FCC7
:1017C00001D1304602E0216800EA4120F90200FB25
:1017D0000C1C0CF1006C0CF10808DCE90023D8E9C2
:1017E00000010CF1100E0CF1180CDEE90089DCE9A7
:1017F00000234FF0FF30834208BF8242B0D10197EF
:10180000814508BF80457FF485AF9DF81820012AE7
:1018100040F09A80DFF83CC2DFF83CE29CF80030F0
:101820004FF02009DA02B0462088A84208BF002005
:1018300009D0216827884FF6F0700EEA4126AF42A2
:10184000B0FBF6F002D1414602E000BF0EEA4121B2
:1018500001FB0020484400F100604FF0FF36D0E962
:101860000001B14208BFB0420ED0BCF80200401CDB
:10187000ACF8020009F10809DCF804000830B9F5F9
:10188000006FCCF80400CFD30422B3462088A842CE
:1018900008BF4FF480201FBF20680EEA4020218837
:1018A000A94202D14FF4802102E021680EEA4121D1
:1018B0004FF6F07741F6F076B7FBF0F700FB1760D4
:1018C000A3EBD0234FF6F07006465B1EB6FBF1F695
:1018D00003F0030301FB160103EBD1232188A94286
:1018E00008BF4FF0000807D027680EEA4726B0FB74
:1018F000F6F82088A84203D14FF4802102E000BF0F
:101900000EEA4721D80201FB080808F1006808F137
:10191000080AD8E90067DAE9000108F1100908F1BE
:101920001808D9E90001D8E900675F4508BF5E459E
:101930000AD1594508BF584506D0BCF80260FC36AC
:10194000521EACF80260A1D10599BDF8100000F05C
:101950002DF810BB3F4C6588032D12D3AD1E032D0F
:1019600016D2BDF81000854209D06946A8B2FFF72B
:10197000BDFB40B90099A8B200F018F898B96D1CE9
:10198000EDE70125EDE70728F9D007B0BDE8F08FB6
:101990002078022100F062F818B1022007B0BDE8FB
:1019A000F08F4FF4807007B0BDE8F08FF0B5294E8E
:1019B0000746708881B00D46B0F5FC7F28BF122025
:1019C00045D20120FFF775FC10F1010F08BF03207D
:1019D0003DD0804A13884FF6FF718B4208BF002428
:1019E0000BD0D2F800E012881B4B4FF6F07403EADC
:1019F0004E2C8A42B4FBFCF402D14FF4802301E068
:101A000003EA4E23C00203FB040000F10060002D36
:101A100004BF002F002408D06D4A916841F00101F5
:101A200091601560178014682404716844EA070205
:101A30002B46081800F0D6F810B1022001B0F0BD16
:101A40007068083070607088401C7080002001B0A1
:101A5000F0BD00000000002000FEFF012DE9F04F66
:101A6000DFF870E1594A81B0BEF800404FF6FF7CC4
:101A70004FF48023644508BF002508D0DEF80070CD
:101A80004FF6F07502EA4726B5FBF6F501D11F4681
:101A900001E002EA47270446E602BEF8000007FB21
:101AA000056505F10065604508BF00200BD0DEF834
:101AB0000070BEF800804FF6F07002EA4729E0455A
:101AC000B0FBF9F001D11F4601E002EA472707FB0E
:101AD000006000F10060BEF800700830674508BF84
:101AE00000270BD0DEF80080BEF800904FF6F077AC
:101AF00002EA482AE145B7FBFAF701D1984601E02E
:101B000002EA482808FB076707F10067BEF8008073
:101B10001037E04508BF4FF000080DD0DEF800B0E8
:101B2000BEF800904FF6F07802EA4B2AB8FBFAF8BC
:101B3000E14518BF02EA4B2303FB086606F1006685
:101B40001836491E032913D8DFE801F0020A161ED1
:101B50004FF0AA321346284600F044F8E0B905E0F9
:101B60004FF0AA32134600F03DF8A8B91A480470A5
:101B7000002001B0BDE8F08F4FF0AA32134638467E
:101B800000F030F840B9F3E74FF0AA321346304680
:101B900000F028F80028EBD0022001B0BDE8F08F5B
:101BA0000E4881B0016841F48051016048F205019E
:101BB000006800F480500090012200980848C1603D
:101BC000016862F3C401016001B0704700FEFF01CB
:101BD00000300240E075FF1F000000204810024066
:101BE000083002400146002000F0C6B8F0B585B0CC
:101BF0000024354A009405460E4610884FF6FF71C2
:101C0000884208BF00200BD0D2F800E02F4B4FF6DF
:101C1000F07003EA4E27B0FBF7F017888F4202D12D
:101C20004FF4802301E003EA4E23E90203FB001096
:101C300000F1006000F01FF80290019404960395F3
:101C4000694601A800F04EF900B10124204605B014
:101C5000F0BD1F48026822F480620260016841F40E
:101C600080510160026822F480520260016841F4F0
:101C700080610160704730B4164D134A2B68DC0553
:101C800013884FF6FF710CD48B4208BF124A05D05F
:101C900011680E4A02EA412202F1006290420CD21F
:101CA0000EE08B4208BF0C4A05D01168074A02EAD1
:101CB000412202F10062904202D230BC0220704701
:101CC00030BC012070470000E075FF1F00FEFF01DF
:101CD00000200240000001400000040800B58DB063
:101CE000FF2101910791684600F06AF906994802C0
:101CF0004CBF00200E200DB000BDF0B402461068AD
:101D000095681318506803EB5004C00748BF4D4452
:101D1000A3422DD013F8016B16F0030004BF13F893
:101D2000010BC01C31090F2907D113F8011B0F311A
:101D300003E013F8017B05F8017B401EF9D100296F
:101D4000E6D013F8010BC6F38107032F08BF13F881
:101D5000017B00EB0720404228440026B71E8F423B
:101D60001EBF10F8017B05F8017B761CF6D1CFE78A
:101D7000F0BC02F10C0070472DE9F043DFF84C7124
:101D800006463878002581B08846144699460128D1
:101D900008BF022029D0012038704FF47A7000F07B
:101DA00042F801001FD100207860224640464B4691
:101DB0001EB900F05BF801250AE0012E18BF022EC3
:101DC00006D1114600F062F8022E08BF4FF48025BC
:101DD0004FF47A7000F027F82DB1DFF8F420116885
:101DE00021EA0505156000223A7001B0BDE8F083D4
:101DF0003949CA680020002A09D5384B384A0B6097
:101E00000A60D1F80CC0BCF1000F48BF0120704738
:101E10002F4A116841F00041116001201268002A28
:101E200048BF0020704770B5054600F019FA064615
:101E3000284C2168C80306D500F012FA801B8542A1
:101E4000F7D2032070BD21684CF2FA30084006D06A
:101E50001E4A5168014351602060012070BD206816
:101E6000C10744BF01202060002070BDDFF860C0C2
:101E7000DCF8001041F00101CCF8001040F8042B10
:101E8000BFF36F8F0360704700000000F0B4104B89
:101E90001A6842F480221A60EFF3108372B610229F
:101EA00051F8047B40F8047B521E51F8046B40F853
:101EB000046B51F8045B40F8045B51F8044B40F8A4
:101EC000044BEDD183F31088F0BC7047F40500207B
:101ED00014200240102002400820024023016745E0
:101EE000AB89EFCD2DE9F047DFF844430746207872
:101EF0008846012808BF022060D0012020704FF4DE
:101F00007A70FFF790FF5FEA000954D10020DFF8F4
:101F1000246360603168880531680ED521F4007152
:101F200031603068410505D5306820F4806030604C
:101F300003210CE0012020770AE0480506D531682E
:101F400021F4806131600220207701E000212177B7
:101F5000386801280DD1786800F0FDF84FF47A70E8
:101F6000FFF761FF81467169DFF8CC0201407161C2
:101F70001FE04FF0FF31C8F80010BD68DFF8BCA2C9
:101F800000E06D1CB968F86841188D4211D279687B
:101F9000284600F000F94FF47A70FFF744FF7169AA
:101FA00081460AEA01015FEA09007161E9D0C8F8D7
:101FB000005000F012F9002020704846BDE8F0877C
:101FC000F0B4014606200860A24A4868002818BFFD
:101FD000012803D0022818BF042823D1CC68072386
:101FE0000B6028B9D06800F07F008860D06816E0E8
:101FF000012805D1106900F07F00886010690EE0AB
:10200000022805D1D06A00F07F008860D06A06E01F
:10201000042806D1106B00F07F008860106BC0F3BD
:102020000644CC60106800F0FF00AA281CBFCC2832
:10203000BB2008611068000A00028861C869012895
:1020400018BF02286AD10B687E4F7F4C43F008030B
:102050000B604FF6FF733E68F5050DD426884FF0F0
:1020600000659E4208BF794B13D02468784B03EA81
:10207000442303F100630CE025889D4208BF734DA3
:1020800005D02368724D05EA432505F100654FF040
:102090000063146866021FD400F00303012B0CD107
:1020A00054686D4B03EA041404F100640C629468F4
:1020B00003EA041303F100632AE0022B29D1546AD6
:1020C000654B03EA041404F100640C62946A03EAA9
:1020D000041303F100631BE000F00304012C0BD197
:1020E00054685E4B03EAC4042C190C62946803EA3A
:1020F000C403ED184D620CE0022C0AD1556A574C0E
:1021000004EAC5055D190D62956A04EAC5041B1948
:102110004B62936803F000431843C861086840F0BD
:1021200010000860106DCB6A00F480308862012BCB
:1021300018BF022B0DD1086840F020000860012B69
:1021400008BF106D02D0022B03D1506D00F0FF00CC
:102150000863F0BC70473A49CB685A0210D5C307F0
:1021600003D50A6842F004020A6082070ED50868A7
:1021700040F400400860086840F480300860704710
:102180000A6842F4004242F004020A60086840F41F
:102190008030086070472A4AD2F80CC05FEA4C23AE
:1021A00001D5CB0704D5116821F40061116003E06B
:1021B000136843F400631360C000116821F47E715A
:1021C00000F4FF6008431060116841F002011160E3
:1021D000106840F48030106070471548017F012975
:1021E00018BF03290ED1134A136843F40063136028
:1021F000D2F800C02CF4006CC2F800C0136843F49D
:1022000000731360022918BF03290CD109490A6819
:1022100042F480520A600B6823F480530B600A6812
:1022200042F480620A6000210177704700000000DC
:10223000F405002000200240FB7FFFFF05FCFFFFAC
:102240001420024000000140E075FF1F0000040858
:1022500000FEFF0120200240F0FF0700F8FF03000E
:1022600001480068704700BFE80500202DE9F04FE5
:1022700081B0DFF808BEDFF8085EDFF8088EDFF80F
:10228000084EDFF8087E2DED048BA0B001F01CF89D
:1022900000F000FF14210022684601F037F8DBF857
:1022A0004C0440F02000CBF84C040122DBF84C0435
:1022B00000F0200005904FF400660598DBF84C1400
:1022C00041F00401CBF84C14DBF84C0400F004009E
:1022D00005900599DBF84C0440F00100CBF84C0464
:1022E000DBF84C0400F0010005900599DBF84C0484
:1022F00040F01000CBF84C04DBF84C0400F0100068
:1023000005900599DBF84C0440F00200CBF84C0432
:10231000DBF84C0400F0020005900599DBF84C0452
:1023200040F00800CBF84C04DBF84C0400F0080047
:1023300005900599DBF84C0440F04000CBF84C04C4
:102340001021DBF84C0400F0400005900598284669
:1023500001F0E6F80022D021404601F0E1F8012228
:102360004FF48051204601F0DBF800224FF4404149
:10237000204601F0D5F800220321384601F0D0F8BC
:1023800010220092012101910022029203926946DB
:10239000284600F0F3FFD020002100900122029196
:1023A000039101926946404600F0E8FF0021019147
:1023B000029100966946204600F0E0FF4FF450403D
:1023C0000121009001910022029203926946204669
:1023D00000F0D4FF012000210090019002910391B0
:1023E0006946384600F0CAFF01210191022003210D
:1023F0000090029003913846694600F0BFFFDFF875
:102400007C1D019100224FF480670292009769467B
:10241000404600F0B3FF2020002100900291694661
:10242000DFF85C2D0192204600F0A8FF0022002179
:10243000172001F09FF8172001F0C5F817A8002118
:1024400001604160816000223C2108A800F05EFF2D
:1024500020210022684600F059FF00200421DFF807
:10246000244DA0602061A083A161032001220021EE
:1024700020624FF0A0484FF400294FF4004A6261F7
:1024800084F82410E162216384F83810E16384F851
:102490004010C4F80080C4F80490C4F80CA0204692
:1024A00001F0DDF80020179017A9204601F053FE37
:1024B000092109917F210B910121DFF8CC0C0890B3
:1024C000012210910A920020802104220D908DF8A3
:1024D00044008DF845008DF84600129113918DF857
:1024E00050000C9208A9204601F0FDFB0621DFF800
:1024F0009C2C01910092002104227F2305910292DD
:10250000039304926946204601F0DAF9DFF86C2D56
:1025100000920C210191002202926946204601F0AE
:10252000CFF91221DFF8582D01910092694620461B
:1025300001F0C6F93C210022684600F0E7FE08F5EC
:102540008070E06600216167E1670020C4F88000C8
:10255000042184F88800C4F8841001200021C4F804
:102560008C0084F8891084F8901084F8A410C4F8C2
:10257000A81084F8AC10C4F87090C4F878A004F1E6
:102580006C0001F06CF809210191012202927F2177
:10259000DFF8F00C009003910422049200218020C7
:1025A00005910122ADF824108DF826100A900B90A9
:1025B0008DF830100892694604F16C0001F093FB2D
:1025C000C4F8F8B304F57E7001F078FE30210022E3
:1025D000684600F09BFE08F50060C4F8200404F58E
:1025E000846001F089FE0022ADF80420029204927A
:1025F0000220052200210090039005900692079189
:102600000022694604F5846001F08AFE002205215B
:10261000039206911022694604F5846001F080FE61
:10262000DFF8640CC4F8D8000021C4F8E010C4F846
:10263000E410002084F8E800012184F8EA0084F81E
:10264000E91001201121C4F8F000C4F8FC00C4F81E
:102650000001C4F80401C4F80801C4F8EC1000201B
:102660000221C4F80C01C4F81001C4F81401C4F824
:10267000F410C4F8F81004F1D80001F029FFDFF8D5
:102680000C9C09F580614FF48270C4F83C11C4F8C9
:10269000400100214FF4E060C4F84411C4F848013F
:1026A000C4F84C110120C4F850014FF400712820E7
:1026B000C4F85801C4F8541107200021C4F8680177
:1026C000C4F85C11C4F86011C4F86411C4F86C114A
:1026D000C4F8701104F59E7002F0A0FA14210022D3
:1026E0001AA800F013FE0AA900200860486088605C
:1026F00007A90860486088601C210022684600F035
:1027000005FE342100220DA800F000FE0020C4F8D0
:102710005802202142F23410C4F86002C4F85C125E
:102720000120C4F8680200214FF48078C4F86C12CC
:10273000C4F85492C4F8648204F5157002F0BAFC2F
:1027400004F5157002F0E4FC102106221B911A9288
:102750001AA904F5157002F0D3FE70200A90002229
:102760000B920C920AA904F5157003F055F901209B
:1027700007900890099007AA022104F5157003F04C
:10278000DDF96020009000220192029203920492EF
:1027900005920692694604F5157002F007FE0020C6
:1027A00001900422694604F5157002F0FFFD002037
:1027B00001900822694604F5157002F0F7FD7020BB
:1027C000002200900192039269460C2204F51570D4
:1027D00002F0ECFDBF21002210911192129213928F
:1027E00000204FF080724FF000710D960E97CDF8DB
:1027F0003C801490159216911790189019900DA97D
:1028000004F5157003F03EF904F5157003F0EAFBCA
:102810002421002203A800F079FD4FF08042C4F883
:10282000942240F2FF7001220592C4F8A0020C220B
:102830000792002101220992032000910191029147
:10284000C4F89812C4F89C12C4F8A412C4F8AC12CC
:1028500003900491069108910A910C220B9203A90E
:1028600004F5257002F070FC00200090029069468B
:1028700004F5257003F0D0F809F54060C4F8A00114
:102880004FF4E131C4F8A4110020C4F8A801C4F841
:10289000AC01C4F8B0010C21C4F8B801C4F8BC0103
:1028A000C4F8C001C4F8C401C4F8C801C4F8B41124
:1028B00004F5D07003F028FC002104F5D07004F07A
:1028C00011FB002104F5D07004F05EFB04F5D0701C
:1028D00004F0E6FA04F0B2FB0020009001900290B0
:1028E00040F2A360C4F8D8028020DFF8AC29C4F815
:1028F000EC020021C4F8D422C4F8DC1242F20F76B4
:10290000C4F8E06204F5357002F0D4FB00200090BA
:102910000290694604F5357003F07EF8DFF87C79A3
:10292000C4F8606307F58060C4F854030021802078
:10293000C4F86C0340F2A468C4F85C13C4F86413D0
:10294000C4F86813C4F8588304F5557002F0B2FB5C
:102950000020C4F81C03C4F82403C4F82803802111
:10296000C4F82C13C4F81473C4F81883C4F8206393
:1029700004F5457002F09EFB01220421182000F0AE
:10298000F9FD182000F01FFE00220021192000F0A0
:10299000F1FD192000F017FE00220221122000F0A4
:1029A000E9FD122000F00FFE002203211C2000F0A0
:1029B000E1FD1C2000F007FE01220321252000F08C
:1029C000D9FD252000F0FFFD00220321282000F082
:1029D000D1FD282000F0F7FD00221021284600F04C
:1029E0009FFDC82004F04CFB04F060FBC82004F0FD
:1029F00047FBD4F89402C16841F40011C160C1687A
:102A000041F48001C160C16841F40001C16004F576
:102A1000357002F069FB04F5557002F065FB04F0B7
:102A20004BFB04F06CFB4FF47A7004F029FB01239C
:102A300002224FF0A04104F5896004F0F3FD84F810
:102A4000AE03012303224FF0A04104F2544004F0EE
:102A5000E9FD84F8AF03002084F8510284F83602BF
:102A600004F08CFE04F5737004F094FE002837D156
:102A700004F5737004F0B5FE58BB94F8CC0394F8D9
:102A8000CE1394F8D02384F8BC0384F8C11384F8DF
:102A9000C02394F8360298BB94F8BC0304F0E0FE1F
:102AA00010F1010F23D0A4F8BE03B4F8BE0304F064
:102AB00052FF84F8C30304F02AFF01001ED16020F6
:102AC00084F851020321002084F8361284F8C203EE
:102AD0004EE05321032084F8511284F8360247E077
:102AE0005221032084F8511284F8360240E05F211D
:102AF000032084F8511284F8360239E084F8C203C6
:102B000094F8360260BB04F56C7004F05CFF04F5C9
:102B1000717004F08BFF0420002184F82C0284F8EB
:102B2000E21384F83612002084F83702062184F874
:102B3000E30384F8D51304F50B7005F017F805F0DE
:102B400077F884F8ED03E8B94FF4967105F076F85C
:102B500005F07CF84FF47A7004F092FA05F044F82E
:102B600094F83602B0F1030F40F6CC4640F0AB814A
:102B700094F85202401C84F852024FF47A7004F028
:102B80007FFAF5E75421032084F8511284F83602C5
:102B9000EEE700BF04F0F6FE84461CF1010FA4F836
:102BA000F20340F08B8004F089FE94F8EA536D1C28
:102BB000E8B2032805DB5A21032084F8511284F877
:102BC0003602002084F8EA5384F8E7039EE100BF50
:102BD00004F5657005F049F80121B4F8980384F80C
:102BE000361284F8371284F832020221002284F867
:102BF0002D0284F82C12C4F844224FF4167005F00C
:102C00000FF884F8400204F56C7004F0ECFE04F553
:102C10006C7004F0E1FE04F56C7004F0E8FE002036
:102C200084F89E0378E1022284F837221D29DCBF54
:102C3000012184F89F1300BFA4F82E025FF000006A
:102C400084F8A00394F89F03002840F09D8094F836
:102C50002C02002840F0AE80B4F8300294ED910AC6
:102C600000EE900AF8EE600AB4EE600AF1EE10FA97
:102C7000C0F2A0805FF0010084F83F0294F8D9030D
:102C8000002840F09D8004F0AFFF04F0D6FA94F8DD
:102C90003E0294F8D913401C84F83E02491C0020DF
:102CA00084F83F0284F8370284F8D913032084F8AB
:102CB0003602012004F0EFFA82E000BFD4F894025B
:102CC000DFF8DC75436ADFF8DC15A3FB0110000AAE
:102CD00040F2991202FB103301EE103A8CFB0737D9
:102CE0006744FB1203EBD37306FB13CC00EE90CAD0
:102CF000B8EE411ADFEDB51AF8EEE00A9FEDB40A1E
:102D0000C1EE211A9FEDB31A80EE811A21EE808A5E
:102D100061EE008A38EE689A19EE100A04F0F6FFA8
:102D2000002521F000410122DFF87C3505F012F882
:102D300014D894F8E803401CC1B2032910DB04F254
:102D4000444204F24043C2ED008A5921032283ED3C
:102D5000009A84F8511284F8362201E05FF00000F6
:102D600084F8E80304F2344304F2384204F23C41AC
:102D7000002083ED008AC2ED008A81ED009A84F87C
:102D8000EA5384F8E703C1E004F02EFF04F5657010
:102D900004F0B6FF0021A4F82E1284F836120020A9
:102DA0005FF00401A4F8340284F8370284F82C128E
:102DB00084F89F0394F83F02B0F1010F3FF45EAF37
:102DC00094F83602012820D1D4ED910A9FEDB00A83
:102DD000F4EE400AF1EE10FA1ADB04F005FF0020D1
:102DE000032184F8370284F8361204F03CFA94F890
:102DF0003E02401C84F83E0294F8D903401C84F83B
:102E0000D903012004F047FA02E002283FF4DCAFC6
:102E100094F8C803012825D094F8EC03002837D192
:102E200094F8360201283FD094F83602022800F0C8
:102E30000581032840F03C8004F0D6FE00200422E7
:102E4000DFF8681484F8D40384F8370284F82C225D
:102E5000088004F56C7004F0C6FD002084F8C803F7
:102E600026E000BF04F50B7104F5717004F0ECFD71
:102E7000010009D00021A4F8C61355225FF0030118
:102E800084F8512284F8361284F8EB03C4E700BFBB
:102E900004F5717004F0D0FD04F5717004F0D1FDFB
:102EA000002084F8EC03BBE794F8C403032853D054
:102EB00094F8E003B0F1000F40F0C88094F8E1030B
:102EC00008B100F08BFB012104F5697004F030FCBF
:102ED000022104F5697004F02BFC04F5697004F01C
:102EE000A7FB04F50B7004F041FE94F8E90338B138
:102EF0005FF0000184F8361284F8511284F8E91367
:102F000094F8E703B0F1000F7FF444AE94F89E0309
:102F1000B0F1000F7FF45CAE94F8A00300283FF4FA
:102F200091AE04F50B7104F5657004F0B8FEB4F8C9
:102F30009403A4F83402B4F99603010048BF49424F
:102F4000B4F92E329942FFF66EAE94F83722022A77
:102F50007FF472AE6AE600BFD448B0F900000028E2
:102F600048BF4042B4F83A12642835DCD048B0F982
:102F70001000002848BF404280B240F6A172904243
:102F800080F2428004F56C7004F036FDB4F92E0234
:102F9000002848BF404281B204F56C7004F03CFD4B
:102FA00094F8B80300283FF43FAF94F8B503012824
:102FB0007FF43AAF94F8511294F8B203032284F8E4
:102FC000362258B3582184F8511235E7CDCCCC4382
:102FD0000000B44300C04C45401A02B2002A07D496
:102FE00094F8403202B2934205DBA4F8F003BDE747
:102FF00010464042F4E703225C2384F8362284F82A
:103000005132A4F8F003B1E70429BBDC03225B20B2
:1030100084F8362284F85102B4E700BF94F8B40370
:1030200020B1572184F8511206E700BF94F8B3038A
:1030300000B1562184F85112FEE600BFB4F83A02FE
:103040006428BFF635AF012184F8E01304F0CCFD0D
:10305000042084F8360284F82C020021934884F876
:103060003712018004F56C7004F0BDFC012004F0FF
:1030700012F9002084F8E00320E70000000C024071
:103080000014004800080048000C004800180048E0
:103090000000484300B5A9B03821002205A800F07F
:1030A00035F914210022684600F030F9542100223D
:1030B00013A800F02BF9002004F066FE4FF4807195
:1030C0000891022202210C910D91059204210E918A
:1030D00040220821099210911191552202210F924C
:1030E000129105A804F0B6FE0F20002100900322E3
:1030F00002910391049101920821684605F0CEF8EF
:1031000049F201020021139214914FF080724FF0A6
:1031100080512192249113A805F006FA29B000BD30
:1031200010B52622624B12FB00F29C1894F8241072
:1031300069B9604A52F8200005F058FB5E4AE08306
:1031400092F9C11311F1010F08BF4042208210BD56
:1031500010B50446C80710D5584A02F1280340218B
:10316000204601F081FB08B904F0BBF82046BDE819
:1031700010400022012101F01ABC10BD00002110F6
:1031800000001110280D00208000501D02003004A6
:1031900001684B48814200D0704710B5464C94F806
:1031A000D403B8B194F8D603401C84F8D60394F83D
:1031B000D51394F8D60381420CD294F8D61384F830
:1031C000EE135E2084F851020321002084F83612A9
:1031D00084F8D403B4F8F41394F8A103491C10B193
:1031E000012284F8A02394F8C80320B1B4F8C603E0
:1031F0006430A4F8C603012084F8E70388B2B4F869
:103200003A2201EE102A4CF6CD43B8EE411A9FED5A
:10321000200A434381EE000ADB0CDFED1E0A94ED29
:10322000911A03EB830200EE201AB0EB420084ED0A
:10323000911A0AD194F8E40338B194F8E603012214
:10324000401C84F8E52384F8E603A4F8F41303F0A3
:103250007FFF03F0ACFF94F83602032805D194F801
:103260005102BDE8104004F029B810BD202803D158
:1032700014490888401C088070470000040060085A
:103280000800900C0001802100680040002C0140E3
:103290000000E1449CC4203F001400400044014071
:1032A000A1000AA089163CA0000014405814002078
:1032B0008811002018120020280D0020D0130020B3
:1032C000004801406A140020032010B500F048F9BE
:1032D000042005F0C1FA0024002814BF012402F0E4
:1032E000A7FC204610BD90F81C1169B9012180F897
:1032F0001C110022D0F8201180F81D21086840F030
:1033000020000860022070470120704762F30F22FE
:1033100062F31F42401810F0030308D0C91A1FD3EC
:10332000DB0748BF00F8012D28BF20F8022D13004D
:1033300030B414461546103928BF20E93C00FAD8AD
:10334000490728BF20E90C0048BF40F8042D890038
:1033500028BF20F8022D48BF00F8012D30BC70476F
:10336000C91818BF00F8012DCB0728BF00F8012DA0
:10337000704700EB4100B0F9320070472DE9F04F83
:103380000A4681B01168DFF8B4E1DFF8B481DFF8F4
:10339000B491DFF8B4A1002300294FF00F0B00F027
:1033A000BB800146012000FA03FC10681CEA000003
:1033B00000F0AD805468022C18BF122C5CD05F0066
:1033C00003240D681679BC40E44306F0030625404B
:1033D000BE4035430D605568012D18BF022D03D046
:1033E000112D18BF122D11D18D68D6682540BE4011
:1033F00035438D604D6825EA0C065568C5F3001508
:1034000015FA03F545EA060CC1F804C0D1F80CC062
:10341000956804EA0C0405FA07F72743CF6054685F
:10342000E40074D5DAF8005045F00105CAF8005000
:103430004FEA930CDAF8004004F001040094009C79
:1034400059F82C709C0004F00C040BFA04F5AF43FF
:10345000B1F1904F20D0414520D03C4DA9421FD022
:103460003B4EB1421ED03B4DA9421DD03A4EB14217
:1034700014BF0625052519E0DC0801EB84049D0036
:10348000276A05F01C050BFA05F6B743166906FA1C
:1034900005F53D43256292E7002507E0012505E09B
:1034A000022503E0032501E05FF0040505FA04F4BA
:1034B0003C4349F82C40C443DEF800C0566804EA97
:1034C0000C0CF50348BF40EA0C0CCEF800C0DEF847
:1034D00004C0556804EA0C0CAE0348BF40EA0C0C6B
:1034E000CEF804C0DEF808C0566804EA0C0CF502F9
:1034F00048BF40EA0C0CCEF808C0DEF80CC0556896
:1035000004EA0C04AD0248BF0443CEF80C40106836
:103510005B1CD8407FF446AF01B0BDE8F08F0000DF
:103520000AB181617047816270470C490A6803469D
:103530001A421CBF0B60FFF799BE704700040140A0
:1035400000040048080001406010024000080048E4
:10355000000C00480010004800140048140401400A
:103560002E490A6860F30A2240F2FA5060F31F42C3
:103570000A60704770B4294D2C68C4F30224C4F16A
:103580000703052B2FBF0F2501259D406D1E261D0E
:10359000072E34BF0024E41E2940A140012303FA72
:1035A00004F4641E224011430A01010003D41C4BA1
:1035B0005A5470BC70471B4801F00F01014401F8D8
:1035C000042C70BC7047010007D4012200F01F01D9
:1035D000154B8A40400943F820207047BFF34F8FB6
:1035E0000E4A1248116801F4E06101431160BFF313
:1035F0004F8F00BFFDE7401EB0F1807F01D3012057
:1036000070470B494860F02081F8130D00228A6052
:10361000072008600020704705F042B90CED00E07B
:1036200000E400E018ED00E000E100E00400FA052D
:1036300010E000E000F11403C80D00F00400C01811
:10364000090D01F01F01D0F800C007238B402CEAC0
:10365000030C02FA01F141EA0C010160704730B538
:1036600081B0044600200025009014B9012001B06B
:1036700030BDE06D30B9204602F0FBFA0021216632
:1036800084F8581021688868800004D58A68DFF8BB
:10369000100202408A6021688868C00027D48A68C6
:1036A000DFF80002DFF80032024042F080528A6008
:1036B00000211868DFF8F421E0FB0221490C009199
:1036C0000098A0B10098401E0090009878B1009832
:1036D000401E0090009850B10098401E0090009845
:1036E00028B10098401E009000980028EAD1216877
:1036F0008868C00008D4E26D42F01002E26501253E
:10370000206E40F0010020668868E26DD30600F16B
:10371000BE80400700F1BB80E26D22F4807242F06F
:103720000202E2658868C0072ED4B1F1A04F1CBF29
:10373000DFF87C01814205D1DFF878010268D0F81A
:10374000000108E0DFF86C01D0F80024D0F8003563
:10375000D0F800061A43104310F0010014D1B1F163
:10376000A04F1CBFDFF84801814207BFDFF84411BA
:1037700001F54072DFF83C0100F5E0621168606815
:1037800021F47C1101431160607FE36BA16894F820
:10379000242043EA4033E06803431943012A41EA05
:1037A000024103D1A06A401E41EA4041E06A20B1D3
:1037B00000F478700843216B01432268DFF8F800B9
:1037C000D36803401943D16021680A69606B22F015
:1037D000406202430A6121688A688868520742D4BD
:1037E000000740D4CA68DFF8D400237F024094F871
:1037F000380042EA833242EA4002CA602069002867
:10380000206801690CD041F4803101612268D2F84E
:10381000C0102069890B40EA8131C2F8C01009E06C
:1038200021F4803101612068D0F8C010890B890330
:10383000C0F8C01094F8400001280FD12268136925
:10384000606CA16C6FF38A030343E06C0B43216D42
:1038500003430B4343F00103136104E02068016953
:10386000490849000161606901282068016B05D1A0
:10387000226A0909521E42EA011101E009090901FF
:1038800001630121E06D61F30100E06504E0E06D9A
:1038900040F01000E0650125284601B030BD000071
:1038A000C0FFFF5FC0FFFF7F1406002047ACC5A725
:1038B00000010050080000500740F0FFFDBFFFFF6F
:1038C000F0B581B0054600200E460090002495F822
:1038D0005810012908BF022000F0D381012085F88B
:1038E000580029688868400700F1C2817268306812
:1038F00001F13003910901F00C01C91802F01F0217
:103900000B681F279740C0F38460BB4300FA02F2A4
:103910001A430A60286882688168520700F1A5800E
:10392000090700F1A280B268B2F1004F08D13168F6
:103930000022FFF77FFE2868416941F0004106E060
:103940003168FFF777FE2868416921F00041416145
:103950002B68D9683069042830D06033326803EBB3
:103960008003DFF82C031F68074002F0F8423A4357
:10397000C9087769480000F0060087403A4342F0E2
:1039800000421A6029683369B069603101EB830134
:103990000A6822F0807210430860307F01280CBF53
:1039A0004FF00070002029683369603101EB83011A
:1039B0000A6822F000721043086056E003F16000CC
:1039C000016801683368C1F384615A030EBFC3F311
:1039D000846293FAA3F2B2FA82F2914203D10168AF
:1039E00021F0004101602868603050F8041F016830
:1039F0003268C1F3846153030EBFC2F3846292FA4A
:103A0000A2F2B2FA82F2914203D1016821F00041A0
:103A100001602868603050F8081F01683368C1F3FE
:103A200084615A030EBFC3F3846293FAA3F2B2FA1D
:103A300082F2914203D1016821F0004101602868BF
:103A4000603050F80C1F01683368C1F384615A0379
:103A50000EBFC3F3846293FAA3F2B2FA82F29142E8
:103A600003D1016821F0004101602B689868C0070C
:103A70006BD4F1683268D3F8B070C2F31200874398
:103A8000DFF8100201F01801C84002403A43C3F8C1
:103A9000B020F168DFF80002814256D13368580344
:103AA0000EBFC3F3846093FAA3F0B0FA80F0401C19
:103AB00000F01F000A2821D2580306D1C3F3846105
:103AC000C3F38460C3F3846305E093FAA3F0B0FA10
:103AD00080F108460B46491C401C8906012200F073
:103AE0001F005B1C01F0F84102FA00F003F01F0315
:103AF000014303EB430341EA035122E0580306D19B
:103B0000C3F38462C3F38460C3F3846305E093FA70
:103B1000A3F0B0FA80F210461346521C401C5B1C06
:103B20009206012100F01F0003F01F0302F0F8428B
:103B300081400A3B114303EB430341EA035141F047
:103B40000071B2682868FFF775FD3068DFF84C1126
:103B5000084200F092802968B1F1A04F1CBFDFF845
:103B60002C2191420EBFDFF82021DFF81C2102F545
:103B700080621268DFF8286102F0E072B0421CBF78
:103B8000DFF8203198423FD116023DD4B1F1A04F69
:103B900008D0DFF8140181426FD1DFF8EC1001F595
:103BA000806001E0DFF8E0000168DFF8006121F0EB
:103BB000E0710A4342F40002026000213268DFF83B
:103BC000F000E2FB0001480C00EB40039B00009377
:103BD0000098002851D00098401E009000980028BE
:103BE0004BD00098401E00900098002845D00098C7
:103BF000401E0090009800283FD00098401E009082
:103C000000980028E7D138E0DFF8A830984216D1B4
:103C1000D00132D4B1F1A04F1CBFDFF87000814257
:103C20000EBFDFF86410DFF8601001F580610868EE
:103C300020F0E070024342F080720A601DE0DFF87D
:103C40007830984219D1560217D4DFF840008142EB
:103C500013D0DFF83400B1F1A04F18BF00F5806039
:103C6000016821F0E0710A4342F48002026004E03E
:103C7000E86D40F02000E8650124002085F8580038
:103C8000204601B0F0BD00000803005000010050C4
:103C900000F0FF03FFFF070000007F4000000880E6
:103CA000000021C31000C090000600501406002040
:103CB00047ACC5A7000052C7000084CB00F1140335
:103CC000C80D00F00400C018090D01F01F01D0F864
:103CD00000C007238B402CEA030C02FA01F141EAF1
:103CE0000C0101607047F0B581B0054600200090DE
:103CF0000E4695F8580000240021012808BF022034
:103D000000F027826869012285F8582000281CBF2E
:103D1000326A012A16D17068092836D13168B06A32
:103D2000490C01F4785120B100F07C000843F16A9D
:103D300001432B68DFF84805DA6C02400A43DA6475
:103D4000696622E0A86E50B9AA666866316AB06AF0
:103D5000491E20B100F07C000843F16A014330683D
:103D60003279C0F3846002F01F0290400143A86ED4
:103D70006A6E401E1143A866696630B92A68DFF88A
:103D80000005D36C03401943D16429688868000793
:103D90000FD496F8250096F826200028C86820F44D
:103DA000401040EA425204BF96F8243042EA0352DF
:103DB000CA6029688A688868520700F1D7800307BB
:103DC00000F1D480B06A00281CBFF06A002807D137
:103DD00096F825000128C8680DD140F000700CE06D
:103DE00096F82500012805D1E86D40F02000E8652F
:103DF000012403E0C86820F00070C86096F8300025
:103E00002A6801280AD11369706BB16B23F4FF7320
:103E100003430B4343F00203136103E0106920F0F6
:103E200002001061B268B2F1004F09D13168286810
:103E30000022FFF743FF2868416941F0004107E095
:103E400031682868FFF73AFF2868416921F000418E
:103E500041612B68D9683069042830D060333268FA
:103E600003EB8003DFF81C041F68074002F0F842F0
:103E70003A43C9087769480000F0060087403A4392
:103E800042F000421A6029683269B069603101EB82
:103E900082010B6823F0807318430860307F01288B
:103EA0000CBF4FF00070002029683369603101EBCE
:103EB00083010A6822F000721043086056E003F1A3
:103EC0006000016801683368C1F384615A030EBF62
:103ED000C3F3846293FAA3F2B2FA82F2914203D15D
:103EE000016821F0004101602868603050F8041F2B
:103EF00001683368C1F384615A030EBFC3F384625F
:103F000093FAA3F2B2FA82F2914203D1016821F04E
:103F1000004101602868603050F8081F016833686C
:103F2000C1F384615A030EBFC3F3846293FAA3F210
:103F3000B2FA82F2914203D1016821F0004101609E
:103F40002868603050F80C1F01683368C1F3846141
:103F50005A030EBFC3F3846293FAA3F2B2FA82F259
:103F6000914203D1016821F0004101602B689868FB
:103F7000C0076BD4F1683268D3F8B070C2F3120096
:103F80008743DFF8040301F01801C84002403A43B8
:103F9000C3F8B020F168DFF8F402814256D13368EB
:103FA00058030EBFC3F3846093FAA3F0B0FA80F015
:103FB000401C00F01F00092821D8580306D1C3F384
:103FC0008461C3F38460C3F3846305E093FAA3F0D0
:103FD000B0FA80F108460B46491C401C89060122B4
:103FE00000F01F005B1C01F0F84102FA00F003F042
:103FF0001F03014303EB430341EA035122E058034B
:1040000006D1C3F38462C3F38460C3F3846305E021
:1040100093FAA3F0B0FA80F210461346521C401CEB
:104020005B1C9206012100F01F0003F01F0302F049
:10403000F84281400A3B114303EB430341EA035139
:1040400041F00071B2682868FFF738FE3068904987
:1040500008427AD02968B1F1A04F1CBF874A91422B
:104060000EBF8C4A8B4A02F5806212688A4B02F0BE
:10407000E07298421CBF894EB0423AD1130238D444
:10408000B1F1A04F06D0864881425ED1814901F549
:10409000806100E07F490868824E20F0E0700243B2
:1040A00042F400020A60002132687F48E2FB00010E
:1040B000480C00EB40039B0000930098002844D07C
:1040C0000098401E0090009800283ED00098401EA6
:1040D00000900098002838D00098401E009000986A
:1040E000002832D00098401E009000980028E7D1A8
:1040F0002BE06E4B984213D1D00126D4B1F1A04FE2
:104100001CBF5E4881420EBF6249624901F5806171
:10411000086820F0E070024342F080720A6014E008
:10412000634B984211D156020FD4544881420CD0AF
:104130005848B1F1A04F18BF00F58060016821F028
:10414000E0710A4342F480020260002085F85800C2
:10415000204601B0F0BD70B490F858300022012B19
:1041600008BF022000F08480012380F858300368E3
:10417000B3F1A04F14D14F4CF834A4689D686D077B
:104180006DD464076BD4B3F1A04F1CBF3B4CA3426A
:1041900007BF484B03F54075464C04F5E06510E059
:1041A000354DAB4203D1434C04F59F64E5E7C26D46
:1041B00042F02002C265002180F85810012070BC36
:1041C00070470B6853B32C684B6890F8386024F440
:1041D00060441C4344EA46342C600468B4F1A04FA8
:1041E0001CBF264B9C4204D1324B1C68D3F80031D3
:1041F00007E0304BD3F80044D3F80065D3F800361D
:104200003443234313F001032ED12E682A4B0C684C
:1042100089681E4026430E432E6025E02B6823F458
:1042200060432B600168B1F1A04F1CBF134B994252
:1042300004D120490B68D1F8001107E01D49D1F8DD
:104240000034D1F80045D1F800162343194311F08A
:10425000010109D12B6818490B402B6004E0C26DA5
:1042600042F02002C2650122002180F85810104659
:1042700070BC7047000000000004005000010050B6
:104280000040100400F0FF03FFFF070000007F4024
:104290000000088008030050000021C31000C090F7
:1042A000000600501406002047ACC5A7000052C706
:1042B000000084CB08000050E0F0FFFF10B50400C0
:1042C00001D1012010BD94F8210028B9002184F803
:1042D0002010204601F03DFD00206062A0602061BA
:1042E00000216160E1606161012084F8210000200B
:1042F00010BD00000100020010B5040001D1012032
:1043000010BD207920B900216171204601F034FDF3
:10431000022020710021216101202071002010BDA8
:104320002DE9F04104460E466079012808BF0220BD
:1043300000F0C880012161710220207102F0100597
:10434000B068042827D1002A3CD1FDF789FF074631
:104350002068416B080405D5FDF782FFC01B0128CA
:10436000F6D937E0012002F08BFE2068716A016403
:1043700040F2FF332068816CB26AAB409943AA4097
:1043800011438164FF232068C16CF26AAB409943FA
:10439000AA401143C164F069012808D12068816BEB
:1043A000326A1F23AB409943AA401143816307201F
:1043B0002168CF6BB169A8408743C80719D54FF072
:1043C000000822E02068416B00290BD5FDF748FF6B
:1043D0000128F7D9216941F00801216103202071EA
:1043E000BDE8F081012002F04BFE2168706A48644C
:1043F000BEE7880748BF4FF0010806D47069B0F1E6
:10440000010868EB08084FEAD878B1687069014381
:1044100048EA01084FF48072AA4031799743012994
:1044200008BF48F480784FF40071A94070798F4339
:10443000012808BF48F400783068022827F4404774
:104440000DD104F03CF82049884228BF47F40047CA
:1044500006D21E49884203D347F4804700E0074351
:10446000216808FA05F00743CF634FF480412268C2
:104470001068A9408843106040F6FE722068016809
:10448000F368AA409143AB4019430160C022216800
:104490000868AA409043086040F60F722068016ED9
:1044A0003369AA409143F2689B01C2F3830203F48B
:1044B00070631A4302FA05F50D4305660121217167
:1044C00000206071BDE8F0810168890901B4C4046D
:1044D00030B5040081B031D094F85C0028B90021D7
:1044E00084F85D10204601F075FC2168886920F091
:1044F00010008861FDF7B4FE0546206881690A074F
:1045000005D5FDF7ADFE401B0B28F6D30FE0816902
:1045100041F001018161FDF7A3FE05462068826933
:10452000D1070ED4FDF79CFE401B0B28F6D3216E5D
:1045300041F001012166032084F85C00012001B0F4
:1045400030BD826942F00202826121685C4881428A
:1045500002D161685B480160217C0129216888697A
:104560000CBF20F0400040F0400088612168607C72
:10457000012888690CBF40F4804020F480408861A5
:104580002168A07C012888690CBF20F4805040F489
:104590008050886122689169A06821F440710143CC
:1045A00091612168886920F0A40088612168086908
:1045B00020F010000861E068012804D121688869B2
:1045C00040F0040013E098B12168022888690CD0FB
:1045D00040F0800088612168086940F0100008619F
:1045E000E068032804D12168886940F020008861D0
:1045F000E069A1696269401E491E000240EA41600B
:10460000216A491E08432168521E40EA0240C861DF
:10461000A068B0F5407F0FD1A06AE16A401E491E34
:1046200040EA0120216B626A491E40EA01102168BC
:10463000521E40EA0240C8602168D1F8C020E06BF9
:104640000243C1F8C02021681F4A2048914208BF98
:104650001F4803D01F4A914208BF1F482064D1F869
:104660008030626B23F4F81343EA0243C1F88030D0
:1046700000F1700161642368D3F88010A26B21F00F
:10468000706141EA026100F51872C3F8801022657A
:1046900000F5C471E16400F1B00300F51E71A3647C
:1046A000616500F55472002140F8041B9042FAD372
:1046B000A1652166012084F85C0001B0002030BDB6
:1046C00000640040006500400068004000A4004015
:1046D00050A70040006C0040A0AA004070B490F8C1
:1046E0005C20012A18BF022A1ED14B684E690C6952
:1046F000CD688A680968920759B9006C42EAC562B8
:1047000042EA044200EB830032430260002070BCA6
:104710007047406C00EBC300324344EA45740460C8
:104720004260002070BC7047016E41F002010166DA
:10473000012070BC704730B490F85C40012C11D15E
:104740000568029CD5F88000800944EA801444EA98
:10475000011444EA820444EA4304C5F8804000207E
:1047600030BC7047016E41F004010166012030BC8D
:10477000704790F85C20012A0BD1022180F85C1070
:10478000026891694908490091610022026600208F
:104790007047016E41F0040101660120704700007E
:1047A000F0B590F85C30022B57D10368D3F8C450B1
:1047B000AC0205D5016E41F4007101660120F0BD27
:1047C000D3F8C4400B698E681E43C4F301454B689F
:1047D0000C68002B0EBF46EA8446264346F080460E
:1047E0000B6ACF694C6947EA03678B691F43CB6843
:1047F00027433B43476D05EBC50407EBC40707F1AF
:1048000008043E607B600027CB680FF200464FEA49
:10481000134C16F80C30BBB192F802E0D3784FEA93
:104820000E4E4EEA036E537812F804CB4EEA032381
:104830004CEA030344F8043B3F1DCB684FEA134C9A
:1048400016F80C309F42E7D30168012202FA05F501
:10485000C1F8CC5085650020F0BD016E41F0080123
:1048600001660120F0BD0000F0B590F85C40022C1C
:1048700040F097804029056810D1D5F8904014F099
:104880000F0F05D1016E41F4807101660120F0BD6A
:10489000D5F89040866CC4F301250FE0D5F8984018
:1048A00014F00F0F05D1016E41F4807101660120F3
:1048B000F0BDD5F89840C66CC4F3012505EBC504DE
:1048C00006EBC406346814F08044546037680CBFAB
:1048D000C7F38A4727F0604717604FF0000C37682E
:1048E00007F00057976056F8044B04F00044146139
:1048F0003768BFB2D761346804F47024D460376875
:1049000007F480175761346804F400149461376821
:10491000C7F3066414620FF2F42756F8044BE40F51
:104920005462D2F80C404FEA144E17F80E407CB394
:1049300016F80C4003F80C400CF1010CD468240C60
:104940003C5DA44524D216F80C4003F80C400CF151
:10495000010CD4684FEA144E17F80E40A44517D244
:1049600016F80C4003F80C400CF1010CD468240C30
:104970003C5DA4450CD216F80C4003F80C400CF139
:10498000010CD4684FEA144E17F80E40A445CFD35B
:10499000006840290CBFC0F89450C0F89C5000201B
:1049A000F0BD016E41F0080101660120F0BD70B458
:1049B00090F85C30012B18BF022B67D103689C6D07
:1049C00011F0070F01D0E5071DD511F0380F01D008
:1049D000A50718D511F4E07F01D0650713D511F4B0
:1049E000F05F01D025070ED511F4604F01D0E50628
:1049F00009D511F4403F01D0A50604D511F47C0F70
:104A000005D0660603D4DD6D45F00105DD6511F0C6
:104A1000070F01D0E3071DD411F0380F01D0A30711
:104A200018D411F4E07F01D0630713D411F4F05FC0
:104A300001D023070ED411F4604F01D0E30609D44E
:104A400011F4403F01D0A30604D411F47C0F06D02A
:104A5000630604D50468E36D43F00203E3650B06C7
:104A600005D50468D4F8DC301343C4F8DC30CB053A
:104A700005D50468D4F8E0301A43C4F8E020026891
:104A8000506D01435165002070BC7047016E41F0CC
:104A900002010166012070BC70472DE9F043074612
:104AA00081B03868016D446D0C40016D456D0D405D
:104AB000016DD0F8548008EA010101F03808016D59
:104AC000466D0E40016DD0F8549009EA010101F4E1
:104AD0006029016D4A0604F4E05405F0070506F468
:104AE000710607D5416D4A0604D540210165384657
:104AF00003F0D7FE3868016DCB050DD5426DD105A9
:104B00000AD5D0F8D810D0F8E0304FF480720265A2
:104B10001940384603F0C6FE2CB1386804652146BA
:104B2000384603F0C0FE2DB1386805652946384681
:104B3000FEF70EFBB8F1000F06D03868C0F85080C1
:104B40004146384603F0B0FE3868016D8A0508D545
:104B5000416D8A0505D54FF400710165384603F0B3
:104B6000A4FE3868016D0B060CD5426D110609D5FF
:104B7000D0F8D410D0F8DC308022026519403846D5
:104B800003F094FE3868016D8A0408D5416D8A04EB
:104B900005D54FF400510165384603F088FE3868AA
:104BA000016D0A0408D5416D0A0405D54FF4004192
:104BB0000165384603F07CFE3868026D510409D562
:104BC000436D5A0406D54FF480410165386E40F0BC
:104BD00080003866B9F1000F06D03868C0F85090F0
:104BE0004946384603F065FE26B138680665396ED9
:104BF0000E433E66386E28B1384601B0BDE8F0433A
:104C000003F058BE01B0BDE8F083000000010203CC
:104C100004050607080C10141820304030B581B088
:104C2000040008BF012053D00021A16294F85D0068
:104C300020B984F85C10204601F00EF9022184F8B6
:104C40005D102168086820F040000860E168B1F557
:104C5000E06F04D90022B1F5706F03D104E04FF486
:104C6000805201D00020A062206B30B9B1F5E06F16
:104C700087BF02212163012020636368A068216946
:104C80002568034360690B43A169034301F4007184
:104C9000E0690B43216A0343A06A0B4303432B6083
:104CA000A369606A616B1B0C03F004030343E068B3
:104CB0000B4303431A4323685A602168C86920F4F0
:104CC0000060C86100212166012084F85D00002099
:104CD00001B030BD2DE9F0470646012596F85C008D
:104CE0000C4691464FF00008012808BF022000F052
:104CF00026811F4686F85C50FDF7B2FA96F85D20D3
:104D0000012A82460AD07068B0F5827F02BFB0687F
:104D10000028042A02D04FF0020809E1002C18BF35
:104D2000B9F1000F00D00FB9A84601E196F85D0077
:104D300004281CBF052286F85D2000203066C6F8D6
:104D40004090A6F84670A6F84470B463F787B7871A
:104D5000F064306540F20172F068904238BF022F73
:104D600004D33368586820F4805003E033685868EF
:104D700040F480505860306803685C0603D40368D0
:104D800043F040030360F3687068089C934249D382
:104D9000002818BF012F09D1B26B30681188C1609B
:104DA000B16B881CB063F18F481EF087F08F28B17B
:104DB00031688868820715D505E000BFB6F846005F
:104DC0000028F5D1AAE0F08F002818BF002D09D0E7
:104DD000B26B1088C8600025B16B881CB063F18F7E
:104DE000481EF08731688868C2070FD5B6F84600BC
:104DF00060B1C968306C01800125326C911C31644E
:104E0000B6F84600B0F10101A6F84610FDF728FA01
:104E1000A0EB0A00A042C9D314F1010FC6D04FF095
:104E2000030885E0002818BF012F14D1B26B306849
:104E3000F18F022907D31288C260B16B881CB0635E
:104E4000F18F881E06E011780173B26B501CB063BD
:104E5000F18F481EF087F08FA0B131688868820713
:104E60001ED5F08F002818BF002D19D0B26BF08F1F
:104E700002280CD31288CA60B06B811CB163F08F1A
:104E8000811E0BE0B6F846000028E6D146E0127815
:104E90000A73B06B411CB163F08F411EF18700258E
:104EA00031688868C20727D5B6F8460020B3306C51
:104EB000B6F84620022A13D3C9680180306C821CE0
:104EC0003264B6F84600811EA6F84610B6F84600D1
:104ED00002280FD23168486840F48050486009E0E9
:104EE000097B0170306C421C3264B6F84600411EEA
:104EF000A6F846105FF00105FDF7B2F9A0EB0A0035
:104F0000A04205D2002CA6D14FF0030810E000BF4C
:104F100014F1010F9FD04FF0030809E052462146DB
:104F2000304600F00EF818B120204FF0010830662E
:104F3000012186F85D10002086F85C004046BDE83F
:104F4000F08770B505460C4616462868816811F44E
:104F5000C05F30D014F1010FF7D0FDF781F9801B4D
:104F6000A04201D2002CF0D12868416821F0E00174
:104F700041606868B0F5827F0BD1A868B0F5004F3A
:104F800018BFB0F5806F04D12868016821F0400196
:104F90000160A86AB0F5005F09D12868026822F4B0
:104FA000005202602868016841F40051016001224A
:104FB00085F85D2072E028688168080638D514F10C
:104FC000010FF8D0FDF74CF9801BA04201D2002C54
:104FD000F1D12868416821F0E00141606868B0F5CE
:104FE000827F0BD1A868B0F5004F18BFB0F5806F75
:104FF00004D12868016821F040010160A86AB0F579
:10500000005F09D12868016821F400510160296816
:10501000086840F400500860012185F85D10002206
:1050200085F85C20286E40F020002866032070BDC3
:105030002968886810F4C06F39D0087B14F1010F1B
:10504000F6D0FDF70DF9801BA04201D2002CEFD164
:105050002968486820F0E00048606868B0F5827F01
:105060000BD1A868B0F5004F18BFB0F5806F04D120
:105070002968086820F040000860A86AB0F5005F61
:1050800009D12868016821F4005101602968086885
:1050900040F400500860012185F85D10002085F87B
:1050A0005C000320296E41F02001296670BD0020BC
:1050B00070BDF7FF10B5040001D1012010BD94F8B8
:1050C0003D0028B9002184F83C10204600F0F3FE92
:1050D000022084F83D00211D206800F03CFA0120E8
:1050E00084F83D00002010BD0068DFF85820C1683A
:1050F00041F00101C16081680A40062A18BFB2F57B
:10510000803F03D0016841F0010101600020704739
:1051100010B5040001D1012010BD94F83D0028B95C
:10512000002184F83C10204603F0C5FB022084F8DF
:105130003D00211D206800F00EFA012084F83D009A
:10514000002010BD07000100F0B581B004000D463D
:1051500008BF012041D094F83D0028B9002184F80F
:105160003C10204600F010FF022084F83D00226829
:10517000DFF88003916801409160211D206800F0F4
:10518000EAF92268DFF8701393689669176AA868CD
:105190000E400643A869DFF8641346EA0026E86873
:1051A0000E400643E869296946EA0026286A46EA6D
:1051B000011646EA00366868696927F0AA070743BE
:1051C0002868034347EA0117936021688E61012133
:1051D0002068076284F83D10002001B0F0BD10B5D2
:1051E000044620680269910716D5C268910713D555
:1051F0006FF00202026101212177806910F0030F34
:10520000204602D003F058FB04E003F056FB204692
:1052100003F054FB0020207720680269510716D55F
:10522000C268510713D56FF0040202610221217791
:10523000806910F4407F204602D003F03DFB04E07B
:1052400003F03BFB204603F039FB00202077206869
:105250000269110716D5C268110713D56FF008024D
:10526000026104212177C06910F0030F204602D0AB
:1052700003F022FB04E003F020FB204603F01EFBBA
:105280000020207720680169CA0616D5C168CA06C1
:1052900013D56FF01001016108222277C06910F464
:1052A000407F204602D003F007FB04E003F005FB3B
:1052B000204603F003FB0020207720680169CA071D
:1052C00008D5C168CA0705D56FF001010161204604
:1052D000FDF75EFF206801690A0608D5C1680A0665
:1052E00005D56FF080010161204603F0E8FA2068DF
:1052F0000169CA0508D5C1680A0605D56FF4807131
:105300000161204603F0DCFA206801694A0608D5ED
:10531000C1684A0605D56FF040010161204603F0DF
:10532000D0FA206801698A0608D5C1688A0605D5C1
:105330006FF020010161204603F0C4FA2068026981
:10534000D10208D5C268D10205D56FF4801202617E
:10535000204603F0B8FA20680269910208D5C268B5
:10536000910205D56FF400120261204603F0ACFAF9
:10537000206801694A0208D5C1684A0205D56FF460
:1053800080010161204603F0A0FA206801690A0249
:105390000AD5C1680A0207D56FF4000101612046F1
:1053A000BDE8104003F092BA10BD000030B50446CD
:1053B00081B094F83C000D46012808BF022000F09F
:1053C0009780012184F83C100220142A84F83D00C3
:1053D00000F28780DFE802F00B8585851F858585D3
:1053E00034858585488585855D858585710020683E
:1053F000294600F01EF92168886940F0080088619C
:105400002168886920F00400886122689169286910
:105410000143916165E02068294600F05BF921684D
:10542000886940F4006088612168886920F48060A0
:105430008861206881692A6941EA0221816150E01E
:105440002068294600F08DF92068C16941F0080103
:10545000C1612068C16921F00401C1612268D1697C
:1054600028690143D1613CE02068294600F0B9F980
:105470002068C16941F40061C1612168C86920F4F4
:105480008060C8612068C1692A6941EA0221C1615E
:1054900027E02068294600F0E4F92168086D40F013
:1054A000080008652168086D20F00400086522687E
:1054B000116D28690143116513E02068294600F049
:1054C00000FA2168086D40F4006008652168086DE5
:1054D00020F4806008652068016D2A6941EA022194
:1054E0000165012084F83D00002184F83C10002073
:1054F00001B030BDF8BFFEFFFCFCFFFF0303FFFF60
:1055000010B5044694F83C00012801D1022010BDDA
:10551000012284F83C20022084F83D00204600F05F
:1055200000FA38B1012184F83D10002084F83C00D5
:10553000012010BD2168C86820F04000C8602168C3
:10554000C86820F48040C860012184F83D10002024
:1055500084F83C0010BD30B40468DFF88034984211
:1055600018BFB0F1804F12D0DFF87454A8421CBFAE
:10557000DFF8882490420AD0DFF88454A8421FBF85
:10558000DFF860249042DFF86C54A84218D124F070
:1055900070024C681443984218BFB0F1804F1FD07E
:1055A000DFF83C2490421CBFDFF85054A84217D0CB
:1055B000DFF84C2490421CBFDFF82854A8420FD0DB
:1055C000DFF8242490421CBFDFF82054A84207D003
:1055D000DFF81C2490421CBFDFF81854A84203D106
:1055E00024F44072CC6814434A6924F080041443C4
:1055F000046098428C68C4620A6882621CBFDFF84B
:10560000E443A0420FD0DFF8E03398421CBFDFF83C
:10561000DC23904207D0DFF8D83398421CBFDFF874
:10562000D423904201D10B6903630121416130BC55
:105630007047F0B4026A520852000262066A436878
:105640008569DFF8C0230C6815402C438D6826F06F
:1056500002063543DFF88463B0421CBFDFF88423C1
:1056600090420FD0DFF88073B8421CBFDFF87C2374
:10567000904207D0DFF87873B8421CBFDFF874237C
:10568000904216D1CA6825F00805154325F0040597
:10569000B0421CBFDFF84C73B8420ED0DFF848634D
:1056A000B0421FBFDFF844239042DFF84463B042AA
:1056B00003D0DFF84023904205D14A6923F44073B8
:1056C0001A438B69134343608461496841630562EF
:1056D000F0BC7047F0B4026ADFF82C3322F01002FD
:1056E0000262046A456886690A68334043EA022315
:1056F0008A6824F0200444EA0214DFF8E022904291
:105700001FBFDFF8E072B842DFF8E862B0420CD1A8
:10571000CE6824F0800444EA061424F04004904249
:105720001CBFDFF8C02290420DD0DFF8BC62B0424F
:105730001CBFDFF8B822904205D0AD4EB0421CBF6E
:10574000AC4A904206D14E698A6925F440651643F9
:1057500045EA860545608361496881630462F0BC5F
:105760007047F0B4026A22F480720262046A4368ED
:10577000C669A44A0D6824F4007416408A6844EA95
:1057800002243543954A90421FBF964FB842994E26
:10579000B0420BD1CE6824F4006444EA062424F419
:1057A000806490421CBF8F4A90420BD08E4EB04214
:1057B0001CBF8E4A904205D08D4EB0421CBF8D4A10
:1057C000904206D14E698A6923F44053164343EA56
:1057D00006134360C5614968C1630462F0BC704749
:1057E0000000F0B4026A884B22F480520262046A1C
:1057F0004568C6690A68334043EA02238A6824F48C
:10580000005444EA0234754A90421FBF754FB842B3
:10581000784EB0420BD1CE6824F4004444EA0634FA
:1058200024F4804490421CBF6E4A90420BD06E4ECE
:10583000B0421CBF6D4A904205D06D4EB0421CBFB5
:105840006C4A904206D14E698A6925F44045164358
:1058500045EA86154560C361496801640462F0BC8D
:10586000704770B4026A5D4E22F480320262046AAC
:105870004368056D654A15400A682A438D6824F41B
:10588000003444EA0544B0421CBF564DA8420BD038
:10589000554EB0421CBF554DA84205D0544EB042A3
:1058A0001CBF544DA84204D14D6923F4803343EA10
:1058B00005234360026549688164046270BC7047D7
:1058C000000070B4026A22F480120262036A446823
:1058D000066D4F4A0D68324042EA05228D683F4E00
:1058E00023F4001343EA0553B0421CBF3D4DA842C8
:1058F0000BD03D4EB0421CBF3C4DA84205D03C4EA3
:10590000B0421CBF3B4DA84204D14D6924F4802411
:1059100044EA8524446002654968C164036270BC3E
:10592000704730B404683448A5684A68394B05406C
:10593000154308681D400543A5604A68402A11D0F8
:10594000502A24D0602A34D0702A44D108698A6849
:10595000CB68A16821F47F410B431A4342EA00223D
:10596000A26038E00868052814BFB0F1011F0120CB
:1059700032D0206A226A520852002262A269096962
:1059800022F0F00242EA0112A261206223E00869DB
:105990008968226A236A5B085B00236222F00A029C
:1059A000A36923F0F00343EA0013A36111432162CA
:1059B00011E008698968226A22F010022262A36954
:1059C000226A23F4704343EA003322F0A002A36169
:1059D00042EA01122262002030BC7047002C0140D4
:1059E00000040040003401400040014000440140F8
:1059F00000480140005001408FFFCFFF00080040E9
:105A0000000C00408CFFFEFFFF8CFFFE8FFFFEFFAF
:105A1000FF8FFFFEF8FFFEFF70B490F83C20012AD4
:105A200008BF022029D0012380F83C30022280F8F0
:105A30003D200468DFF8EC316668A5689C421FBF12
:105A4000DFF8E4219442DFF8E4319C4203D126F4EC
:105A500070024E6816430A4B8A6809681E4025F09A
:105A600080050E431543666001230268956080F847
:105A70003D30002180F83C10002070BC70470000D1
:105A80008FFFFFFD70B490F83C20012A08BF022070
:105A900052D0012280F83C20CC688A684B68614D66
:105AA00024F44074144324F480641C430A680B6992
:105AB00024F40064144324F480541C434A690B6B9F
:105AC00024F40054144324F4804423438A69046872
:105AD00023F4702343EA0243AC421FBF524A94426C
